{
  "abi": [
    {
      "anonymous": false,
      "inputs": [
        {
          "indexed": false,
          "internalType": "uint256",
          "name": "info",
          "type": "uint256"
        }
      ],
      "name": "Debug",
      "type": "event"
    },
    {
      "anonymous": false,
      "inputs": [
        {
          "indexed": true,
          "internalType": "address",
          "name": "previousOwner",
          "type": "address"
        },
        {
          "indexed": true,
          "internalType": "address",
          "name": "newOwner",
          "type": "address"
        }
      ],
      "name": "OwnershipTransferred",
      "type": "event"
    },
    {
      "inputs": [
        {
          "internalType": "uint256",
          "name": "element_type",
          "type": "uint256"
        },
        {
          "internalType": "uint256",
          "name": "duration_in_days",
          "type": "uint256"
        }
      ],
      "name": "addElement",
      "outputs": [],
      "stateMutability": "payable",
      "type": "function"
    },
    {
      "inputs": [
        {
          "internalType": "uint256",
          "name": "",
          "type": "uint256"
        }
      ],
      "name": "borrow",
      "outputs": [
        {
          "internalType": "uint256",
          "name": "",
          "type": "uint256"
        }
      ],
      "stateMutability": "view",
      "type": "function"
    },
    {
      "inputs": [
        {
          "internalType": "bytes32",
          "name": "_key",
          "type": "bytes32"
        }
      ],
      "name": "containsElement",
      "outputs": [
        {
          "internalType": "bool",
          "name": "",
          "type": "bool"
        }
      ],
      "stateMutability": "view",
      "type": "function"
    },
    {
      "inputs": [],
      "name": "getAllElements",
      "outputs": [
        {
          "components": [
            {
              "internalType": "bytes32",
              "name": "key",
              "type": "bytes32"
            },
            {
              "internalType": "uint256",
              "name": "element_type",
              "type": "uint256"
            },
            {
              "internalType": "address",
              "name": "participant",
              "type": "address"
            },
            {
              "internalType": "uint256",
              "name": "amount",
              "type": "uint256"
            },
            {
              "internalType": "uint256",
              "name": "duration_in_days",
              "type": "uint256"
            },
            {
              "internalType": "uint256",
              "name": "timestamp",
              "type": "uint256"
            },
            {
              "internalType": "bool",
              "name": "expired",
              "type": "bool"
            }
          ],
          "internalType": "struct Element[]",
          "name": "",
          "type": "tuple[]"
        }
      ],
      "stateMutability": "view",
      "type": "function"
    },
    {
      "inputs": [],
      "name": "getBalance",
      "outputs": [
        {
          "internalType": "uint256",
          "name": "",
          "type": "uint256"
        }
      ],
      "stateMutability": "view",
      "type": "function"
    },
    {
      "inputs": [],
      "name": "getElementAddresses",
      "outputs": [
        {
          "internalType": "address[]",
          "name": "",
          "type": "address[]"
        }
      ],
      "stateMutability": "view",
      "type": "function"
    },
    {
      "inputs": [
        {
          "internalType": "uint256",
          "name": "_elementType",
          "type": "uint256"
        }
      ],
      "name": "getElementByElementType",
      "outputs": [
        {
          "components": [
            {
              "internalType": "bytes32",
              "name": "key",
              "type": "bytes32"
            },
            {
              "internalType": "uint256",
              "name": "element_type",
              "type": "uint256"
            },
            {
              "internalType": "address",
              "name": "participant",
              "type": "address"
            },
            {
              "internalType": "uint256",
              "name": "amount",
              "type": "uint256"
            },
            {
              "internalType": "uint256",
              "name": "duration_in_days",
              "type": "uint256"
            },
            {
              "internalType": "uint256",
              "name": "timestamp",
              "type": "uint256"
            },
            {
              "internalType": "bool",
              "name": "expired",
              "type": "bool"
            }
          ],
          "internalType": "struct Element[]",
          "name": "",
          "type": "tuple[]"
        }
      ],
      "stateMutability": "view",
      "type": "function"
    },
    {
      "inputs": [
        {
          "internalType": "uint256",
          "name": "_elementType",
          "type": "uint256"
        },
        {
          "internalType": "address",
          "name": "_address",
          "type": "address"
        }
      ],
      "name": "getElementByElementTypeAndAddress",
      "outputs": [
        {
          "components": [
            {
              "internalType": "bytes32",
              "name": "key",
              "type": "bytes32"
            },
            {
              "internalType": "uint256",
              "name": "element_type",
              "type": "uint256"
            },
            {
              "internalType": "address",
              "name": "participant",
              "type": "address"
            },
            {
              "internalType": "uint256",
              "name": "amount",
              "type": "uint256"
            },
            {
              "internalType": "uint256",
              "name": "duration_in_days",
              "type": "uint256"
            },
            {
              "internalType": "uint256",
              "name": "timestamp",
              "type": "uint256"
            },
            {
              "internalType": "bool",
              "name": "expired",
              "type": "bool"
            }
          ],
          "internalType": "struct Element[]",
          "name": "",
          "type": "tuple[]"
        }
      ],
      "stateMutability": "view",
      "type": "function"
    },
    {
      "inputs": [
        {
          "internalType": "bytes32",
          "name": "_key",
          "type": "bytes32"
        }
      ],
      "name": "getElementByKey",
      "outputs": [
        {
          "components": [
            {
              "internalType": "bytes32",
              "name": "key",
              "type": "bytes32"
            },
            {
              "internalType": "uint256",
              "name": "element_type",
              "type": "uint256"
            },
            {
              "internalType": "address",
              "name": "participant",
              "type": "address"
            },
            {
              "internalType": "uint256",
              "name": "amount",
              "type": "uint256"
            },
            {
              "internalType": "uint256",
              "name": "duration_in_days",
              "type": "uint256"
            },
            {
              "internalType": "uint256",
              "name": "timestamp",
              "type": "uint256"
            },
            {
              "internalType": "bool",
              "name": "expired",
              "type": "bool"
            }
          ],
          "internalType": "struct Element",
          "name": "",
          "type": "tuple"
        }
      ],
      "stateMutability": "view",
      "type": "function"
    },
    {
      "inputs": [],
      "name": "getElementKeys",
      "outputs": [
        {
          "internalType": "bytes32[]",
          "name": "",
          "type": "bytes32[]"
        }
      ],
      "stateMutability": "view",
      "type": "function"
    },
    {
      "inputs": [
        {
          "internalType": "address",
          "name": "_address",
          "type": "address"
        }
      ],
      "name": "getElementbyAddress",
      "outputs": [
        {
          "components": [
            {
              "internalType": "bytes32",
              "name": "key",
              "type": "bytes32"
            },
            {
              "internalType": "uint256",
              "name": "element_type",
              "type": "uint256"
            },
            {
              "internalType": "address",
              "name": "participant",
              "type": "address"
            },
            {
              "internalType": "uint256",
              "name": "amount",
              "type": "uint256"
            },
            {
              "internalType": "uint256",
              "name": "duration_in_days",
              "type": "uint256"
            },
            {
              "internalType": "uint256",
              "name": "timestamp",
              "type": "uint256"
            },
            {
              "internalType": "bool",
              "name": "expired",
              "type": "bool"
            }
          ],
          "internalType": "struct Element[]",
          "name": "",
          "type": "tuple[]"
        }
      ],
      "stateMutability": "view",
      "type": "function"
    },
    {
      "inputs": [],
      "name": "getOwner",
      "outputs": [
        {
          "internalType": "address",
          "name": "",
          "type": "address"
        }
      ],
      "stateMutability": "view",
      "type": "function"
    },
    {
      "inputs": [
        {
          "internalType": "bytes32",
          "name": "_key",
          "type": "bytes32"
        }
      ],
      "name": "handbackElement",
      "outputs": [],
      "stateMutability": "nonpayable",
      "type": "function"
    },
    {
      "inputs": [],
      "name": "handbackExpiredElements",
      "outputs": [],
      "stateMutability": "nonpayable",
      "type": "function"
    },
    {
      "inputs": [],
      "name": "owner",
      "outputs": [
        {
          "internalType": "address",
          "name": "",
          "type": "address"
        }
      ],
      "stateMutability": "view",
      "type": "function"
    },
    {
      "inputs": [
        {
          "internalType": "bytes32",
          "name": "_key",
          "type": "bytes32"
        }
      ],
      "name": "removeElement",
      "outputs": [],
      "stateMutability": "nonpayable",
      "type": "function"
    },
    {
      "inputs": [],
      "name": "renounceOwnership",
      "outputs": [],
      "stateMutability": "nonpayable",
      "type": "function"
    },
    {
      "inputs": [],
      "name": "sizeCollection",
      "outputs": [
        {
          "internalType": "uint256",
          "name": "",
          "type": "uint256"
        }
      ],
      "stateMutability": "view",
      "type": "function"
    },
    {
      "inputs": [
        {
          "internalType": "address",
          "name": "newOwner",
          "type": "address"
        }
      ],
      "name": "transferOwnership",
      "outputs": [],
      "stateMutability": "nonpayable",
      "type": "function"
    }
  ],
  "bytecode": "608060405234801561001057600080fd5b5061001a3361001f565b61006f565b600080546001600160a01b038381166001600160a01b0319831681178455604051919092169283917f8be0079c531659141344cd1fd0a4f28419497f9722a3daafe3b4186f6b6457e09190a35050565b6114fa8061007e6000396000f3fe6080604052600436106101145760003560e01c8063893d20e8116100a0578063d9a3307411610064578063d9a33074146102fd578063eb73292714610312578063f2fde38b14610332578063f980c80d14610352578063ff5fb5ab1461037257600080fd5b8063893d20e81461025a5780638da5cb5b1461028c578063958c4065146102aa578063b7da015a146102bd578063c5ebeaec146102dd57600080fd5b8063390c46ab116100e7578063390c46ab146101ac578063520b0872146101ce5780636fbda09614610210578063715018a6146102305780638829ae831461024557600080fd5b806312065fe0146101195780631a76834b1461013b578063280ca66614610168578063304eadb81461018a575b600080fd5b34801561012557600080fd5b50475b6040519081526020015b60405180910390f35b34801561014757600080fd5b5061015b61015636600461123d565b610394565b60405161013291906112a2565b34801561017457600080fd5b5061017d610458565b60405161013291906112b0565b34801561019657600080fd5b506101aa6101a536600461123d565b61051e565b005b3480156101b857600080fd5b506101c161054c565b60405161013291906112fe565b3480156101da57600080fd5b506102006101e936600461123d565b600090815260016020526040902060050154151590565b6040519015158152602001610132565b34801561021c57600080fd5b5061017d61022b36600461123d565b6105ae565b34801561023c57600080fd5b506101aa610718565b34801561025157600080fd5b506101aa610783565b34801561026657600080fd5b506000546001600160a01b03165b6040516001600160a01b039091168152602001610132565b34801561029857600080fd5b506000546001600160a01b0316610274565b6101aa6102b836600461133f565b610841565b3480156102c957600080fd5b5061017d6102d836600461137d565b610a02565b3480156102e957600080fd5b506101286102f836600461123d565b610b8a565b34801561030957600080fd5b50600254610128565b34801561031e57600080fd5b5061017d61032d36600461139f565b610bee565b34801561033e57600080fd5b506101aa61034d36600461137d565b610dff565b34801561035e57600080fd5b506101aa61036d36600461123d565b610eca565b34801561037e57600080fd5b50610387611110565b60405161013291906113cb565b61039c6111f2565b6000828152600160208181526040808420815160e08101835281548152938101549284019290925260028201546001600160a01b03169083015260038101546060830152600481015460808301819052600582015460a084015260069091015460ff16151560c083015290919061041490603c611419565b61041f90603c611419565b61042a906018611419565b8260a001516104399190611438565b42106104475750600161044b565b5060005b151560c082015292915050565b60025460609060009067ffffffffffffffff81111561047957610479611450565b6040519080825280602002602001820160405280156104b257816020015b61049f6111f2565b8152602001906001900390816104975790505b50905060005b600254811015610518576104e8600282815481106104d8576104d8611466565b9060005260206000200154610394565b8282815181106104fa576104fa611466565b602002602001018190525080806105109061147c565b9150506104b8565b50919050565b600061052982610394565b905061053d81604001518260600151611167565b805161054890610eca565b5050565b606060038054806020026020016040519081016040528092919081815260200182805480156105a457602002820191906000526020600020905b81546001600160a01b03168152600190910190602001808311610586575b5050505050905090565b60606000805b600254811015610619578360016000600284815481106105d6576105d6611466565b9060005260206000200154815260200190815260200160002060010154141561060757816106038161147c565b9250505b806106118161147c565b9150506105b4565b5060008167ffffffffffffffff81111561063557610635611450565b60405190808252806020026020018201604052801561066e57816020015b61065b6111f2565b8152602001906001900390816106535790505b5090506000805b60025481101561070e5785600160006002848154811061069757610697611466565b906000526020600020015481526020019081526020016000206001015414156106fc576106d0600282815481106104d8576104d8611466565b8383815181106106e2576106e2611466565b602002602001018190525081806106f89061147c565b9250505b806107068161147c565b915050610675565b5090949350505050565b6000546001600160a01b031633146107775760405162461bcd60e51b815260206004820181905260248201527f4f776e61626c653a2063616c6c6572206973206e6f7420746865206f776e657260448201526064015b60405180910390fd5b61078160006111a2565b565b600061078d610458565b905060005b8151811015610548578181815181106107ad576107ad611466565b602002602001015160c00151151560011515141561082f576108098282815181106107da576107da611466565b6020026020010151604001518383815181106107f8576107f8611466565b602002602001015160600151611167565b61082f82828151811061081e5761081e611466565b602002602001015160000151610eca565b806108398161147c565b915050610792565b6000334261084e60025490565b604080516001600160a01b039094166020850152830191909152606082015260800160408051808303601f19018152828252805160209182012060e084018352808452818401878152338585019081523460608701908152608087018981524260a08901908152600060c08a018181528782526001988990529881208a5181559551868901559351600280870180546001600160a01b0319166001600160a01b0390931692909217909155925160038601559051600485015551600584015594516006909201805460ff191692151592909217909155835492830184559283527f405787fa12a823e0f2b7631cc41b3ba8828b3321ca811111fa75cd3aa3bb5ace9091018190559250805b6003548110156109b257336001600160a01b03166003828154811061098057610980611466565b6000918252602090912001546001600160a01b031614156109a057600191505b806109aa8161147c565b915050610959565b50806109fb57600380546001810182556000919091527fc2575a0e9e593c00f959f8c92f12db2869c3395a3b0502d05e2516446f71f85b0180546001600160a01b031916331790555b5050505050565b60606000805b600254811015610a8157836001600160a01b03166001600060028481548110610a3357610a33611466565b600091825260208083209091015483528201929092526040019020600201546001600160a01b03161415610a6f5781610a6b8161147c565b9250505b80610a798161147c565b915050610a08565b5060008167ffffffffffffffff811115610a9d57610a9d611450565b604051908082528060200260200182016040528015610ad657816020015b610ac36111f2565b815260200190600190039081610abb5790505b5090506000805b60025481101561070e57856001600160a01b03166001600060028481548110610b0857610b08611466565b600091825260208083209091015483528201929092526040019020600201546001600160a01b03161415610b7857610b4c600282815481106104d8576104d8611466565b838381518110610b5e57610b5e611466565b60200260200101819052508180610b749061147c565b9250505b80610b828161147c565b915050610add565b6000806000610b9a600233610bee565b905060005b8151811015610be557818181518110610bba57610bba611466565b60200260200101516060015183610bd19190611438565b925080610bdd8161147c565b915050610b9f565b50909392505050565b60606000805b600254811015610cab57846001600060028481548110610c1657610c16611466565b9060005260206000200154815260200190815260200160002060010154148015610c865750836001600160a01b03166001600060028481548110610c5c57610c5c611466565b600091825260208083209091015483528201929092526040019020600201546001600160a01b0316145b15610c995781610c958161147c565b9250505b80610ca38161147c565b915050610bf4565b5060008167ffffffffffffffff811115610cc757610cc7611450565b604051908082528060200260200182016040528015610d0057816020015b610ced6111f2565b815260200190600190039081610ce55790505b5090506000805b600254811015610df257866001600060028481548110610d2957610d29611466565b9060005260206000200154815260200190815260200160002060010154148015610d995750856001600160a01b03166001600060028481548110610d6f57610d6f611466565b600091825260208083209091015483528201929092526040019020600201546001600160a01b0316145b15610de057610db4600282815481106104d8576104d8611466565b838381518110610dc657610dc6611466565b60200260200101819052508180610ddc9061147c565b9250505b80610dea8161147c565b915050610d07565b5090925050505b92915050565b6000546001600160a01b03163314610e595760405162461bcd60e51b815260206004820181905260248201527f4f776e61626c653a2063616c6c6572206973206e6f7420746865206f776e6572604482015260640161076e565b6001600160a01b038116610ebe5760405162461bcd60e51b815260206004820152602660248201527f4f776e61626c653a206e6577206f776e657220697320746865207a65726f206160448201526564647265737360d01b606482015260840161076e565b610ec7816111a2565b50565b6000818152600160205260408120600201546001600160a01b03169080805b600354811015610f4e57836001600160a01b031660038281548110610f1057610f10611466565b6000918252602090912001546001600160a01b03161415610f3c5782610f358161147c565b9350508091505b80610f468161147c565b915050610ee9565b5081600114156110065760038054610f6890600190611497565b81548110610f7857610f78611466565b600091825260209091200154600380546001600160a01b039092169183908110610fa457610fa4611466565b9060005260206000200160006101000a8154816001600160a01b0302191690836001600160a01b031602179055506003805480610fe357610fe36114ae565b600082815260209020810160001990810180546001600160a01b03191690550190555b60005b60025481101561104e57846002828154811061102757611027611466565b9060005260206000200154141561103c578091505b806110468161147c565b915050611009565b506002805461105f90600190611497565b8154811061106f5761106f611466565b90600052602060002001546002828154811061108d5761108d611466565b60009182526020909120015560028054806110aa576110aa6114ae565b600082815260208082208301600019908101839055909201909255948152600194859052604081208181559485018190556002850180546001600160a01b031916905560038501819055600485018190556005850155505050600601805460ff19169055565b606060028054806020026020016040519081016040528092919081815260200182805480156105a457602002820191906000526020600020905b81548152602001906001019080831161114a575050505050905090565b6040516001600160a01b0383169082156108fc029083906000818181858888f1935050505015801561119d573d6000803e3d6000fd5b505050565b600080546001600160a01b038381166001600160a01b0319831681178455604051919092169283917f8be0079c531659141344cd1fd0a4f28419497f9722a3daafe3b4186f6b6457e09190a35050565b6040518060e00160405280600080191681526020016000815260200160006001600160a01b031681526020016000815260200160008152602001600081526020016000151581525090565b60006020828403121561124f57600080fd5b5035919050565b80518252602080820151908301526040808201516001600160a01b031690830152606080820151908301526080808201519083015260a0808201519083015260c0908101511515910152565b60e08101610df98284611256565b6020808252825182820181905260009190848201906040850190845b818110156112f2576112df838551611256565b9284019260e092909201916001016112cc565b50909695505050505050565b6020808252825182820181905260009190848201906040850190845b818110156112f25783516001600160a01b03168352928401929184019160010161131a565b6000806040838503121561135257600080fd5b50508035926020909101359150565b80356001600160a01b038116811461137857600080fd5b919050565b60006020828403121561138f57600080fd5b61139882611361565b9392505050565b600080604083850312156113b257600080fd5b823591506113c260208401611361565b90509250929050565b6020808252825182820181905260009190848201906040850190845b818110156112f2578351835292840192918401916001016113e7565b634e487b7160e01b600052601160045260246000fd5b600081600019048311821515161561143357611433611403565b500290565b6000821982111561144b5761144b611403565b500190565b634e487b7160e01b600052604160045260246000fd5b634e487b7160e01b600052603260045260246000fd5b600060001982141561149057611490611403565b5060010190565b6000828210156114a9576114a9611403565b500390565b634e487b7160e01b600052603160045260246000fdfea2646970667358221220dbb64e8a0b59e7f385393f69fefd12df4b0af4d5ee1ff07680bae3c7e664bdfd64736f6c634300080c0033",
  "bytecodeSha1": "c02da2e8b70382c152a481f01a1ed0af8bd96771",
  "compiler": {
    "evm_version": "istanbul",
    "optimizer": {
      "enabled": true,
      "runs": 200
    },
    "version": "0.8.12+commit.f00d7308"
  },
  "contractName": "CLendingManager",
  "language": "Solidity",
  "natspec": {
    "kind": "dev",
    "methods": {
      "owner()": {
        "details": "Returns the address of the current owner."
      },
      "renounceOwnership()": {
        "details": "Leaves the contract without owner. It will not be possible to call `onlyOwner` functions anymore. Can only be called by the current owner. NOTE: Renouncing ownership will leave the contract without an owner, thereby removing any functionality that is only available to the owner."
      },
      "transferOwnership(address)": {
        "details": "Transfers ownership of the contract to a new account (`newOwner`). Can only be called by the current owner."
      }
    },
    "version": 1
  },
  "opcodes": "PUSH1 0x80 PUSH1 0x40 MSTORE PUSH1 0x4 CALLDATASIZE LT PUSH2 0x114 JUMPI PUSH1 0x0 CALLDATALOAD PUSH1 0xE0 SHR DUP1 PUSH4 0x893D20E8 GT PUSH2 0xA0 JUMPI DUP1 PUSH4 0xD9A33074 GT PUSH2 0x64 JUMPI DUP1 PUSH4 0xD9A33074 EQ PUSH2 0x2FD JUMPI DUP1 PUSH4 0xEB732927 EQ PUSH2 0x312 JUMPI DUP1 PUSH4 0xF2FDE38B EQ PUSH2 0x332 JUMPI DUP1 PUSH4 0xF980C80D EQ PUSH2 0x352 JUMPI DUP1 PUSH4 0xFF5FB5AB EQ PUSH2 0x372 JUMPI PUSH1 0x0 DUP1 REVERT JUMPDEST DUP1 PUSH4 0x893D20E8 EQ PUSH2 0x25A JUMPI DUP1 PUSH4 0x8DA5CB5B EQ PUSH2 0x28C JUMPI DUP1 PUSH4 0x958C4065 EQ PUSH2 0x2AA JUMPI DUP1 PUSH4 0xB7DA015A EQ PUSH2 0x2BD JUMPI DUP1 PUSH4 0xC5EBEAEC EQ PUSH2 0x2DD JUMPI PUSH1 0x0 DUP1 REVERT JUMPDEST DUP1 PUSH4 0x390C46AB GT PUSH2 0xE7 JUMPI DUP1 PUSH4 0x390C46AB EQ PUSH2 0x1AC JUMPI DUP1 PUSH4 0x520B0872 EQ PUSH2 0x1CE JUMPI DUP1 PUSH4 0x6FBDA096 EQ PUSH2 0x210 JUMPI DUP1 PUSH4 0x715018A6 EQ PUSH2 0x230 JUMPI DUP1 PUSH4 0x8829AE83 EQ PUSH2 0x245 JUMPI PUSH1 0x0 DUP1 REVERT JUMPDEST DUP1 PUSH4 0x12065FE0 EQ PUSH2 0x119 JUMPI DUP1 PUSH4 0x1A76834B EQ PUSH2 0x13B JUMPI DUP1 PUSH4 0x280CA666 EQ PUSH2 0x168 JUMPI DUP1 PUSH4 0x304EADB8 EQ PUSH2 0x18A JUMPI JUMPDEST PUSH1 0x0 DUP1 REVERT JUMPDEST CALLVALUE DUP1 ISZERO PUSH2 0x125 JUMPI PUSH1 0x0 DUP1 REVERT JUMPDEST POP SELFBALANCE JUMPDEST PUSH1 0x40 MLOAD SWAP1 DUP2 MSTORE PUSH1 0x20 ADD JUMPDEST PUSH1 0x40 MLOAD DUP1 SWAP2 SUB SWAP1 RETURN JUMPDEST CALLVALUE DUP1 ISZERO PUSH2 0x147 JUMPI PUSH1 0x0 DUP1 REVERT JUMPDEST POP PUSH2 0x15B PUSH2 0x156 CALLDATASIZE PUSH1 0x4 PUSH2 0x123D JUMP JUMPDEST PUSH2 0x394 JUMP JUMPDEST PUSH1 0x40 MLOAD PUSH2 0x132 SWAP2 SWAP1 PUSH2 0x12A2 JUMP JUMPDEST CALLVALUE DUP1 ISZERO PUSH2 0x174 JUMPI PUSH1 0x0 DUP1 REVERT JUMPDEST POP PUSH2 0x17D PUSH2 0x458 JUMP JUMPDEST PUSH1 0x40 MLOAD PUSH2 0x132 SWAP2 SWAP1 PUSH2 0x12B0 JUMP JUMPDEST CALLVALUE DUP1 ISZERO PUSH2 0x196 JUMPI PUSH1 0x0 DUP1 REVERT JUMPDEST POP PUSH2 0x1AA PUSH2 0x1A5 CALLDATASIZE PUSH1 0x4 PUSH2 0x123D JUMP JUMPDEST PUSH2 0x51E JUMP JUMPDEST STOP JUMPDEST CALLVALUE DUP1 ISZERO PUSH2 0x1B8 JUMPI PUSH1 0x0 DUP1 REVERT JUMPDEST POP PUSH2 0x1C1 PUSH2 0x54C JUMP JUMPDEST PUSH1 0x40 MLOAD PUSH2 0x132 SWAP2 SWAP1 PUSH2 0x12FE JUMP JUMPDEST CALLVALUE DUP1 ISZERO PUSH2 0x1DA JUMPI PUSH1 0x0 DUP1 REVERT JUMPDEST POP PUSH2 0x200 PUSH2 0x1E9 CALLDATASIZE PUSH1 0x4 PUSH2 0x123D JUMP JUMPDEST PUSH1 0x0 SWAP1 DUP2 MSTORE PUSH1 0x1 PUSH1 0x20 MSTORE PUSH1 0x40 SWAP1 KECCAK256 PUSH1 0x5 ADD SLOAD ISZERO ISZERO SWAP1 JUMP JUMPDEST PUSH1 0x40 MLOAD SWAP1 ISZERO ISZERO DUP2 MSTORE PUSH1 0x20 ADD PUSH2 0x132 JUMP JUMPDEST CALLVALUE DUP1 ISZERO PUSH2 0x21C JUMPI PUSH1 0x0 DUP1 REVERT JUMPDEST POP PUSH2 0x17D PUSH2 0x22B CALLDATASIZE PUSH1 0x4 PUSH2 0x123D JUMP JUMPDEST PUSH2 0x5AE JUMP JUMPDEST CALLVALUE DUP1 ISZERO PUSH2 0x23C JUMPI PUSH1 0x0 DUP1 REVERT JUMPDEST POP PUSH2 0x1AA PUSH2 0x718 JUMP JUMPDEST CALLVALUE DUP1 ISZERO PUSH2 0x251 JUMPI PUSH1 0x0 DUP1 REVERT JUMPDEST POP PUSH2 0x1AA PUSH2 0x783 JUMP JUMPDEST CALLVALUE DUP1 ISZERO PUSH2 0x266 JUMPI PUSH1 0x0 DUP1 REVERT JUMPDEST POP PUSH1 0x0 SLOAD PUSH1 0x1 PUSH1 0x1 PUSH1 0xA0 SHL SUB AND JUMPDEST PUSH1 0x40 MLOAD PUSH1 0x1 PUSH1 0x1 PUSH1 0xA0 SHL SUB SWAP1 SWAP2 AND DUP2 MSTORE PUSH1 0x20 ADD PUSH2 0x132 JUMP JUMPDEST CALLVALUE DUP1 ISZERO PUSH2 0x298 JUMPI PUSH1 0x0 DUP1 REVERT JUMPDEST POP PUSH1 0x0 SLOAD PUSH1 0x1 PUSH1 0x1 PUSH1 0xA0 SHL SUB AND PUSH2 0x274 JUMP JUMPDEST PUSH2 0x1AA PUSH2 0x2B8 CALLDATASIZE PUSH1 0x4 PUSH2 0x133F JUMP JUMPDEST PUSH2 0x841 JUMP JUMPDEST CALLVALUE DUP1 ISZERO PUSH2 0x2C9 JUMPI PUSH1 0x0 DUP1 REVERT JUMPDEST POP PUSH2 0x17D PUSH2 0x2D8 CALLDATASIZE PUSH1 0x4 PUSH2 0x137D JUMP JUMPDEST PUSH2 0xA02 JUMP JUMPDEST CALLVALUE DUP1 ISZERO PUSH2 0x2E9 JUMPI PUSH1 0x0 DUP1 REVERT JUMPDEST POP PUSH2 0x128 PUSH2 0x2F8 CALLDATASIZE PUSH1 0x4 PUSH2 0x123D JUMP JUMPDEST PUSH2 0xB8A JUMP JUMPDEST CALLVALUE DUP1 ISZERO PUSH2 0x309 JUMPI PUSH1 0x0 DUP1 REVERT JUMPDEST POP PUSH1 0x2 SLOAD PUSH2 0x128 JUMP JUMPDEST CALLVALUE DUP1 ISZERO PUSH2 0x31E JUMPI PUSH1 0x0 DUP1 REVERT JUMPDEST POP PUSH2 0x17D PUSH2 0x32D CALLDATASIZE PUSH1 0x4 PUSH2 0x139F JUMP JUMPDEST PUSH2 0xBEE JUMP JUMPDEST CALLVALUE DUP1 ISZERO PUSH2 0x33E JUMPI PUSH1 0x0 DUP1 REVERT JUMPDEST POP PUSH2 0x1AA PUSH2 0x34D CALLDATASIZE PUSH1 0x4 PUSH2 0x137D JUMP JUMPDEST PUSH2 0xDFF JUMP JUMPDEST CALLVALUE DUP1 ISZERO PUSH2 0x35E JUMPI PUSH1 0x0 DUP1 REVERT JUMPDEST POP PUSH2 0x1AA PUSH2 0x36D CALLDATASIZE PUSH1 0x4 PUSH2 0x123D JUMP JUMPDEST PUSH2 0xECA JUMP JUMPDEST CALLVALUE DUP1 ISZERO PUSH2 0x37E JUMPI PUSH1 0x0 DUP1 REVERT JUMPDEST POP PUSH2 0x387 PUSH2 0x1110 JUMP JUMPDEST PUSH1 0x40 MLOAD PUSH2 0x132 SWAP2 SWAP1 PUSH2 0x13CB JUMP JUMPDEST PUSH2 0x39C PUSH2 0x11F2 JUMP JUMPDEST PUSH1 0x0 DUP3 DUP2 MSTORE PUSH1 0x1 PUSH1 0x20 DUP2 DUP2 MSTORE PUSH1 0x40 DUP1 DUP5 KECCAK256 DUP2 MLOAD PUSH1 0xE0 DUP2 ADD DUP4 MSTORE DUP2 SLOAD DUP2 MSTORE SWAP4 DUP2 ADD SLOAD SWAP3 DUP5 ADD SWAP3 SWAP1 SWAP3 MSTORE PUSH1 0x2 DUP3 ADD SLOAD PUSH1 0x1 PUSH1 0x1 PUSH1 0xA0 SHL SUB AND SWAP1 DUP4 ADD MSTORE PUSH1 0x3 DUP2 ADD SLOAD PUSH1 0x60 DUP4 ADD MSTORE PUSH1 0x4 DUP2 ADD SLOAD PUSH1 0x80 DUP4 ADD DUP2 SWAP1 MSTORE PUSH1 0x5 DUP3 ADD SLOAD PUSH1 0xA0 DUP5 ADD MSTORE PUSH1 0x6 SWAP1 SWAP2 ADD SLOAD PUSH1 0xFF AND ISZERO ISZERO PUSH1 0xC0 DUP4 ADD MSTORE SWAP1 SWAP2 SWAP1 PUSH2 0x414 SWAP1 PUSH1 0x3C PUSH2 0x1419 JUMP JUMPDEST PUSH2 0x41F SWAP1 PUSH1 0x3C PUSH2 0x1419 JUMP JUMPDEST PUSH2 0x42A SWAP1 PUSH1 0x18 PUSH2 0x1419 JUMP JUMPDEST DUP3 PUSH1 0xA0 ADD MLOAD PUSH2 0x439 SWAP2 SWAP1 PUSH2 0x1438 JUMP JUMPDEST TIMESTAMP LT PUSH2 0x447 JUMPI POP PUSH1 0x1 PUSH2 0x44B JUMP JUMPDEST POP PUSH1 0x0 JUMPDEST ISZERO ISZERO PUSH1 0xC0 DUP3 ADD MSTORE SWAP3 SWAP2 POP POP JUMP JUMPDEST PUSH1 0x2 SLOAD PUSH1 0x60 SWAP1 PUSH1 0x0 SWAP1 PUSH8 0xFFFFFFFFFFFFFFFF DUP2 GT ISZERO PUSH2 0x479 JUMPI PUSH2 0x479 PUSH2 0x1450 JUMP JUMPDEST PUSH1 0x40 MLOAD SWAP1 DUP1 DUP3 MSTORE DUP1 PUSH1 0x20 MUL PUSH1 0x20 ADD DUP3 ADD PUSH1 0x40 MSTORE DUP1 ISZERO PUSH2 0x4B2 JUMPI DUP2 PUSH1 0x20 ADD JUMPDEST PUSH2 0x49F PUSH2 0x11F2 JUMP JUMPDEST DUP2 MSTORE PUSH1 0x20 ADD SWAP1 PUSH1 0x1 SWAP1 SUB SWAP1 DUP2 PUSH2 0x497 JUMPI SWAP1 POP JUMPDEST POP SWAP1 POP PUSH1 0x0 JUMPDEST PUSH1 0x2 SLOAD DUP2 LT ISZERO PUSH2 0x518 JUMPI PUSH2 0x4E8 PUSH1 0x2 DUP3 DUP2 SLOAD DUP2 LT PUSH2 0x4D8 JUMPI PUSH2 0x4D8 PUSH2 0x1466 JUMP JUMPDEST SWAP1 PUSH1 0x0 MSTORE PUSH1 0x20 PUSH1 0x0 KECCAK256 ADD SLOAD PUSH2 0x394 JUMP JUMPDEST DUP3 DUP3 DUP2 MLOAD DUP2 LT PUSH2 0x4FA JUMPI PUSH2 0x4FA PUSH2 0x1466 JUMP JUMPDEST PUSH1 0x20 MUL PUSH1 0x20 ADD ADD DUP2 SWAP1 MSTORE POP DUP1 DUP1 PUSH2 0x510 SWAP1 PUSH2 0x147C JUMP JUMPDEST SWAP2 POP POP PUSH2 0x4B8 JUMP JUMPDEST POP SWAP2 SWAP1 POP JUMP JUMPDEST PUSH1 0x0 PUSH2 0x529 DUP3 PUSH2 0x394 JUMP JUMPDEST SWAP1 POP PUSH2 0x53D DUP2 PUSH1 0x40 ADD MLOAD DUP3 PUSH1 0x60 ADD MLOAD PUSH2 0x1167 JUMP JUMPDEST DUP1 MLOAD PUSH2 0x548 SWAP1 PUSH2 0xECA JUMP JUMPDEST POP POP JUMP JUMPDEST PUSH1 0x60 PUSH1 0x3 DUP1 SLOAD DUP1 PUSH1 0x20 MUL PUSH1 0x20 ADD PUSH1 0x40 MLOAD SWAP1 DUP2 ADD PUSH1 0x40 MSTORE DUP1 SWAP3 SWAP2 SWAP1 DUP2 DUP2 MSTORE PUSH1 0x20 ADD DUP3 DUP1 SLOAD DUP1 ISZERO PUSH2 0x5A4 JUMPI PUSH1 0x20 MUL DUP3 ADD SWAP2 SWAP1 PUSH1 0x0 MSTORE PUSH1 0x20 PUSH1 0x0 KECCAK256 SWAP1 JUMPDEST DUP2 SLOAD PUSH1 0x1 PUSH1 0x1 PUSH1 0xA0 SHL SUB AND DUP2 MSTORE PUSH1 0x1 SWAP1 SWAP2 ADD SWAP1 PUSH1 0x20 ADD DUP1 DUP4 GT PUSH2 0x586 JUMPI JUMPDEST POP POP POP POP POP SWAP1 POP SWAP1 JUMP JUMPDEST PUSH1 0x60 PUSH1 0x0 DUP1 JUMPDEST PUSH1 0x2 SLOAD DUP2 LT ISZERO PUSH2 0x619 JUMPI DUP4 PUSH1 0x1 PUSH1 0x0 PUSH1 0x2 DUP5 DUP2 SLOAD DUP2 LT PUSH2 0x5D6 JUMPI PUSH2 0x5D6 PUSH2 0x1466 JUMP JUMPDEST SWAP1 PUSH1 0x0 MSTORE PUSH1 0x20 PUSH1 0x0 KECCAK256 ADD SLOAD DUP2 MSTORE PUSH1 0x20 ADD SWAP1 DUP2 MSTORE PUSH1 0x20 ADD PUSH1 0x0 KECCAK256 PUSH1 0x1 ADD SLOAD EQ ISZERO PUSH2 0x607 JUMPI DUP2 PUSH2 0x603 DUP2 PUSH2 0x147C JUMP JUMPDEST SWAP3 POP POP JUMPDEST DUP1 PUSH2 0x611 DUP2 PUSH2 0x147C JUMP JUMPDEST SWAP2 POP POP PUSH2 0x5B4 JUMP JUMPDEST POP PUSH1 0x0 DUP2 PUSH8 0xFFFFFFFFFFFFFFFF DUP2 GT ISZERO PUSH2 0x635 JUMPI PUSH2 0x635 PUSH2 0x1450 JUMP JUMPDEST PUSH1 0x40 MLOAD SWAP1 DUP1 DUP3 MSTORE DUP1 PUSH1 0x20 MUL PUSH1 0x20 ADD DUP3 ADD PUSH1 0x40 MSTORE DUP1 ISZERO PUSH2 0x66E JUMPI DUP2 PUSH1 0x20 ADD JUMPDEST PUSH2 0x65B PUSH2 0x11F2 JUMP JUMPDEST DUP2 MSTORE PUSH1 0x20 ADD SWAP1 PUSH1 0x1 SWAP1 SUB SWAP1 DUP2 PUSH2 0x653 JUMPI SWAP1 POP JUMPDEST POP SWAP1 POP PUSH1 0x0 DUP1 JUMPDEST PUSH1 0x2 SLOAD DUP2 LT ISZERO PUSH2 0x70E JUMPI DUP6 PUSH1 0x1 PUSH1 0x0 PUSH1 0x2 DUP5 DUP2 SLOAD DUP2 LT PUSH2 0x697 JUMPI PUSH2 0x697 PUSH2 0x1466 JUMP JUMPDEST SWAP1 PUSH1 0x0 MSTORE PUSH1 0x20 PUSH1 0x0 KECCAK256 ADD SLOAD DUP2 MSTORE PUSH1 0x20 ADD SWAP1 DUP2 MSTORE PUSH1 0x20 ADD PUSH1 0x0 KECCAK256 PUSH1 0x1 ADD SLOAD EQ ISZERO PUSH2 0x6FC JUMPI PUSH2 0x6D0 PUSH1 0x2 DUP3 DUP2 SLOAD DUP2 LT PUSH2 0x4D8 JUMPI PUSH2 0x4D8 PUSH2 0x1466 JUMP JUMPDEST DUP4 DUP4 DUP2 MLOAD DUP2 LT PUSH2 0x6E2 JUMPI PUSH2 0x6E2 PUSH2 0x1466 JUMP JUMPDEST PUSH1 0x20 MUL PUSH1 0x20 ADD ADD DUP2 SWAP1 MSTORE POP DUP2 DUP1 PUSH2 0x6F8 SWAP1 PUSH2 0x147C JUMP JUMPDEST SWAP3 POP POP JUMPDEST DUP1 PUSH2 0x706 DUP2 PUSH2 0x147C JUMP JUMPDEST SWAP2 POP POP PUSH2 0x675 JUMP JUMPDEST POP SWAP1 SWAP5 SWAP4 POP POP POP POP JUMP JUMPDEST PUSH1 0x0 SLOAD PUSH1 0x1 PUSH1 0x1 PUSH1 0xA0 SHL SUB AND CALLER EQ PUSH2 0x777 JUMPI PUSH1 0x40 MLOAD PUSH3 0x461BCD PUSH1 0xE5 SHL DUP2 MSTORE PUSH1 0x20 PUSH1 0x4 DUP3 ADD DUP2 SWAP1 MSTORE PUSH1 0x24 DUP3 ADD MSTORE PUSH32 0x4F776E61626C653A2063616C6C6572206973206E6F7420746865206F776E6572 PUSH1 0x44 DUP3 ADD MSTORE PUSH1 0x64 ADD JUMPDEST PUSH1 0x40 MLOAD DUP1 SWAP2 SUB SWAP1 REVERT JUMPDEST PUSH2 0x781 PUSH1 0x0 PUSH2 0x11A2 JUMP JUMPDEST JUMP JUMPDEST PUSH1 0x0 PUSH2 0x78D PUSH2 0x458 JUMP JUMPDEST SWAP1 POP PUSH1 0x0 JUMPDEST DUP2 MLOAD DUP2 LT ISZERO PUSH2 0x548 JUMPI DUP2 DUP2 DUP2 MLOAD DUP2 LT PUSH2 0x7AD JUMPI PUSH2 0x7AD PUSH2 0x1466 JUMP JUMPDEST PUSH1 0x20 MUL PUSH1 0x20 ADD ADD MLOAD PUSH1 0xC0 ADD MLOAD ISZERO ISZERO PUSH1 0x1 ISZERO ISZERO EQ ISZERO PUSH2 0x82F JUMPI PUSH2 0x809 DUP3 DUP3 DUP2 MLOAD DUP2 LT PUSH2 0x7DA JUMPI PUSH2 0x7DA PUSH2 0x1466 JUMP JUMPDEST PUSH1 0x20 MUL PUSH1 0x20 ADD ADD MLOAD PUSH1 0x40 ADD MLOAD DUP4 DUP4 DUP2 MLOAD DUP2 LT PUSH2 0x7F8 JUMPI PUSH2 0x7F8 PUSH2 0x1466 JUMP JUMPDEST PUSH1 0x20 MUL PUSH1 0x20 ADD ADD MLOAD PUSH1 0x60 ADD MLOAD PUSH2 0x1167 JUMP JUMPDEST PUSH2 0x82F DUP3 DUP3 DUP2 MLOAD DUP2 LT PUSH2 0x81E JUMPI PUSH2 0x81E PUSH2 0x1466 JUMP JUMPDEST PUSH1 0x20 MUL PUSH1 0x20 ADD ADD MLOAD PUSH1 0x0 ADD MLOAD PUSH2 0xECA JUMP JUMPDEST DUP1 PUSH2 0x839 DUP2 PUSH2 0x147C JUMP JUMPDEST SWAP2 POP POP PUSH2 0x792 JUMP JUMPDEST PUSH1 0x0 CALLER TIMESTAMP PUSH2 0x84E PUSH1 0x2 SLOAD SWAP1 JUMP JUMPDEST PUSH1 0x40 DUP1 MLOAD PUSH1 0x1 PUSH1 0x1 PUSH1 0xA0 SHL SUB SWAP1 SWAP5 AND PUSH1 0x20 DUP6 ADD MSTORE DUP4 ADD SWAP2 SWAP1 SWAP2 MSTORE PUSH1 0x60 DUP3 ADD MSTORE PUSH1 0x80 ADD PUSH1 0x40 DUP1 MLOAD DUP1 DUP4 SUB PUSH1 0x1F NOT ADD DUP2 MSTORE DUP3 DUP3 MSTORE DUP1 MLOAD PUSH1 0x20 SWAP2 DUP3 ADD KECCAK256 PUSH1 0xE0 DUP5 ADD DUP4 MSTORE DUP1 DUP5 MSTORE DUP2 DUP5 ADD DUP8 DUP2 MSTORE CALLER DUP6 DUP6 ADD SWAP1 DUP2 MSTORE CALLVALUE PUSH1 0x60 DUP8 ADD SWAP1 DUP2 MSTORE PUSH1 0x80 DUP8 ADD DUP10 DUP2 MSTORE TIMESTAMP PUSH1 0xA0 DUP10 ADD SWAP1 DUP2 MSTORE PUSH1 0x0 PUSH1 0xC0 DUP11 ADD DUP2 DUP2 MSTORE DUP8 DUP3 MSTORE PUSH1 0x1 SWAP9 DUP10 SWAP1 MSTORE SWAP9 DUP2 KECCAK256 DUP11 MLOAD DUP2 SSTORE SWAP6 MLOAD DUP7 DUP10 ADD SSTORE SWAP4 MLOAD PUSH1 0x2 DUP1 DUP8 ADD DUP1 SLOAD PUSH1 0x1 PUSH1 0x1 PUSH1 0xA0 SHL SUB NOT AND PUSH1 0x1 PUSH1 0x1 PUSH1 0xA0 SHL SUB SWAP1 SWAP4 AND SWAP3 SWAP1 SWAP3 OR SWAP1 SWAP2 SSTORE SWAP3 MLOAD PUSH1 0x3 DUP7 ADD SSTORE SWAP1 MLOAD PUSH1 0x4 DUP6 ADD SSTORE MLOAD PUSH1 0x5 DUP5 ADD SSTORE SWAP5 MLOAD PUSH1 0x6 SWAP1 SWAP3 ADD DUP1 SLOAD PUSH1 0xFF NOT AND SWAP3 ISZERO ISZERO SWAP3 SWAP1 SWAP3 OR SWAP1 SWAP2 SSTORE DUP4 SLOAD SWAP3 DUP4 ADD DUP5 SSTORE SWAP3 DUP4 MSTORE PUSH32 0x405787FA12A823E0F2B7631CC41B3BA8828B3321CA811111FA75CD3AA3BB5ACE SWAP1 SWAP2 ADD DUP2 SWAP1 SSTORE SWAP3 POP DUP1 JUMPDEST PUSH1 0x3 SLOAD DUP2 LT ISZERO PUSH2 0x9B2 JUMPI CALLER PUSH1 0x1 PUSH1 0x1 PUSH1 0xA0 SHL SUB AND PUSH1 0x3 DUP3 DUP2 SLOAD DUP2 LT PUSH2 0x980 JUMPI PUSH2 0x980 PUSH2 0x1466 JUMP JUMPDEST PUSH1 0x0 SWAP2 DUP3 MSTORE PUSH1 0x20 SWAP1 SWAP2 KECCAK256 ADD SLOAD PUSH1 0x1 PUSH1 0x1 PUSH1 0xA0 SHL SUB AND EQ ISZERO PUSH2 0x9A0 JUMPI PUSH1 0x1 SWAP2 POP JUMPDEST DUP1 PUSH2 0x9AA DUP2 PUSH2 0x147C JUMP JUMPDEST SWAP2 POP POP PUSH2 0x959 JUMP JUMPDEST POP DUP1 PUSH2 0x9FB JUMPI PUSH1 0x3 DUP1 SLOAD PUSH1 0x1 DUP2 ADD DUP3 SSTORE PUSH1 0x0 SWAP2 SWAP1 SWAP2 MSTORE PUSH32 0xC2575A0E9E593C00F959F8C92F12DB2869C3395A3B0502D05E2516446F71F85B ADD DUP1 SLOAD PUSH1 0x1 PUSH1 0x1 PUSH1 0xA0 SHL SUB NOT AND CALLER OR SWAP1 SSTORE JUMPDEST POP POP POP POP POP JUMP JUMPDEST PUSH1 0x60 PUSH1 0x0 DUP1 JUMPDEST PUSH1 0x2 SLOAD DUP2 LT ISZERO PUSH2 0xA81 JUMPI DUP4 PUSH1 0x1 PUSH1 0x1 PUSH1 0xA0 SHL SUB AND PUSH1 0x1 PUSH1 0x0 PUSH1 0x2 DUP5 DUP2 SLOAD DUP2 LT PUSH2 0xA33 JUMPI PUSH2 0xA33 PUSH2 0x1466 JUMP JUMPDEST PUSH1 0x0 SWAP2 DUP3 MSTORE PUSH1 0x20 DUP1 DUP4 KECCAK256 SWAP1 SWAP2 ADD SLOAD DUP4 MSTORE DUP3 ADD SWAP3 SWAP1 SWAP3 MSTORE PUSH1 0x40 ADD SWAP1 KECCAK256 PUSH1 0x2 ADD SLOAD PUSH1 0x1 PUSH1 0x1 PUSH1 0xA0 SHL SUB AND EQ ISZERO PUSH2 0xA6F JUMPI DUP2 PUSH2 0xA6B DUP2 PUSH2 0x147C JUMP JUMPDEST SWAP3 POP POP JUMPDEST DUP1 PUSH2 0xA79 DUP2 PUSH2 0x147C JUMP JUMPDEST SWAP2 POP POP PUSH2 0xA08 JUMP JUMPDEST POP PUSH1 0x0 DUP2 PUSH8 0xFFFFFFFFFFFFFFFF DUP2 GT ISZERO PUSH2 0xA9D JUMPI PUSH2 0xA9D PUSH2 0x1450 JUMP JUMPDEST PUSH1 0x40 MLOAD SWAP1 DUP1 DUP3 MSTORE DUP1 PUSH1 0x20 MUL PUSH1 0x20 ADD DUP3 ADD PUSH1 0x40 MSTORE DUP1 ISZERO PUSH2 0xAD6 JUMPI DUP2 PUSH1 0x20 ADD JUMPDEST PUSH2 0xAC3 PUSH2 0x11F2 JUMP JUMPDEST DUP2 MSTORE PUSH1 0x20 ADD SWAP1 PUSH1 0x1 SWAP1 SUB SWAP1 DUP2 PUSH2 0xABB JUMPI SWAP1 POP JUMPDEST POP SWAP1 POP PUSH1 0x0 DUP1 JUMPDEST PUSH1 0x2 SLOAD DUP2 LT ISZERO PUSH2 0x70E JUMPI DUP6 PUSH1 0x1 PUSH1 0x1 PUSH1 0xA0 SHL SUB AND PUSH1 0x1 PUSH1 0x0 PUSH1 0x2 DUP5 DUP2 SLOAD DUP2 LT PUSH2 0xB08 JUMPI PUSH2 0xB08 PUSH2 0x1466 JUMP JUMPDEST PUSH1 0x0 SWAP2 DUP3 MSTORE PUSH1 0x20 DUP1 DUP4 KECCAK256 SWAP1 SWAP2 ADD SLOAD DUP4 MSTORE DUP3 ADD SWAP3 SWAP1 SWAP3 MSTORE PUSH1 0x40 ADD SWAP1 KECCAK256 PUSH1 0x2 ADD SLOAD PUSH1 0x1 PUSH1 0x1 PUSH1 0xA0 SHL SUB AND EQ ISZERO PUSH2 0xB78 JUMPI PUSH2 0xB4C PUSH1 0x2 DUP3 DUP2 SLOAD DUP2 LT PUSH2 0x4D8 JUMPI PUSH2 0x4D8 PUSH2 0x1466 JUMP JUMPDEST DUP4 DUP4 DUP2 MLOAD DUP2 LT PUSH2 0xB5E JUMPI PUSH2 0xB5E PUSH2 0x1466 JUMP JUMPDEST PUSH1 0x20 MUL PUSH1 0x20 ADD ADD DUP2 SWAP1 MSTORE POP DUP2 DUP1 PUSH2 0xB74 SWAP1 PUSH2 0x147C JUMP JUMPDEST SWAP3 POP POP JUMPDEST DUP1 PUSH2 0xB82 DUP2 PUSH2 0x147C JUMP JUMPDEST SWAP2 POP POP PUSH2 0xADD JUMP JUMPDEST PUSH1 0x0 DUP1 PUSH1 0x0 PUSH2 0xB9A PUSH1 0x2 CALLER PUSH2 0xBEE JUMP JUMPDEST SWAP1 POP PUSH1 0x0 JUMPDEST DUP2 MLOAD DUP2 LT ISZERO PUSH2 0xBE5 JUMPI DUP2 DUP2 DUP2 MLOAD DUP2 LT PUSH2 0xBBA JUMPI PUSH2 0xBBA PUSH2 0x1466 JUMP JUMPDEST PUSH1 0x20 MUL PUSH1 0x20 ADD ADD MLOAD PUSH1 0x60 ADD MLOAD DUP4 PUSH2 0xBD1 SWAP2 SWAP1 PUSH2 0x1438 JUMP JUMPDEST SWAP3 POP DUP1 PUSH2 0xBDD DUP2 PUSH2 0x147C JUMP JUMPDEST SWAP2 POP POP PUSH2 0xB9F JUMP JUMPDEST POP SWAP1 SWAP4 SWAP3 POP POP POP JUMP JUMPDEST PUSH1 0x60 PUSH1 0x0 DUP1 JUMPDEST PUSH1 0x2 SLOAD DUP2 LT ISZERO PUSH2 0xCAB JUMPI DUP5 PUSH1 0x1 PUSH1 0x0 PUSH1 0x2 DUP5 DUP2 SLOAD DUP2 LT PUSH2 0xC16 JUMPI PUSH2 0xC16 PUSH2 0x1466 JUMP JUMPDEST SWAP1 PUSH1 0x0 MSTORE PUSH1 0x20 PUSH1 0x0 KECCAK256 ADD SLOAD DUP2 MSTORE PUSH1 0x20 ADD SWAP1 DUP2 MSTORE PUSH1 0x20 ADD PUSH1 0x0 KECCAK256 PUSH1 0x1 ADD SLOAD EQ DUP1 ISZERO PUSH2 0xC86 JUMPI POP DUP4 PUSH1 0x1 PUSH1 0x1 PUSH1 0xA0 SHL SUB AND PUSH1 0x1 PUSH1 0x0 PUSH1 0x2 DUP5 DUP2 SLOAD DUP2 LT PUSH2 0xC5C JUMPI PUSH2 0xC5C PUSH2 0x1466 JUMP JUMPDEST PUSH1 0x0 SWAP2 DUP3 MSTORE PUSH1 0x20 DUP1 DUP4 KECCAK256 SWAP1 SWAP2 ADD SLOAD DUP4 MSTORE DUP3 ADD SWAP3 SWAP1 SWAP3 MSTORE PUSH1 0x40 ADD SWAP1 KECCAK256 PUSH1 0x2 ADD SLOAD PUSH1 0x1 PUSH1 0x1 PUSH1 0xA0 SHL SUB AND EQ JUMPDEST ISZERO PUSH2 0xC99 JUMPI DUP2 PUSH2 0xC95 DUP2 PUSH2 0x147C JUMP JUMPDEST SWAP3 POP POP JUMPDEST DUP1 PUSH2 0xCA3 DUP2 PUSH2 0x147C JUMP JUMPDEST SWAP2 POP POP PUSH2 0xBF4 JUMP JUMPDEST POP PUSH1 0x0 DUP2 PUSH8 0xFFFFFFFFFFFFFFFF DUP2 GT ISZERO PUSH2 0xCC7 JUMPI PUSH2 0xCC7 PUSH2 0x1450 JUMP JUMPDEST PUSH1 0x40 MLOAD SWAP1 DUP1 DUP3 MSTORE DUP1 PUSH1 0x20 MUL PUSH1 0x20 ADD DUP3 ADD PUSH1 0x40 MSTORE DUP1 ISZERO PUSH2 0xD00 JUMPI DUP2 PUSH1 0x20 ADD JUMPDEST PUSH2 0xCED PUSH2 0x11F2 JUMP JUMPDEST DUP2 MSTORE PUSH1 0x20 ADD SWAP1 PUSH1 0x1 SWAP1 SUB SWAP1 DUP2 PUSH2 0xCE5 JUMPI SWAP1 POP JUMPDEST POP SWAP1 POP PUSH1 0x0 DUP1 JUMPDEST PUSH1 0x2 SLOAD DUP2 LT ISZERO PUSH2 0xDF2 JUMPI DUP7 PUSH1 0x1 PUSH1 0x0 PUSH1 0x2 DUP5 DUP2 SLOAD DUP2 LT PUSH2 0xD29 JUMPI PUSH2 0xD29 PUSH2 0x1466 JUMP JUMPDEST SWAP1 PUSH1 0x0 MSTORE PUSH1 0x20 PUSH1 0x0 KECCAK256 ADD SLOAD DUP2 MSTORE PUSH1 0x20 ADD SWAP1 DUP2 MSTORE PUSH1 0x20 ADD PUSH1 0x0 KECCAK256 PUSH1 0x1 ADD SLOAD EQ DUP1 ISZERO PUSH2 0xD99 JUMPI POP DUP6 PUSH1 0x1 PUSH1 0x1 PUSH1 0xA0 SHL SUB AND PUSH1 0x1 PUSH1 0x0 PUSH1 0x2 DUP5 DUP2 SLOAD DUP2 LT PUSH2 0xD6F JUMPI PUSH2 0xD6F PUSH2 0x1466 JUMP JUMPDEST PUSH1 0x0 SWAP2 DUP3 MSTORE PUSH1 0x20 DUP1 DUP4 KECCAK256 SWAP1 SWAP2 ADD SLOAD DUP4 MSTORE DUP3 ADD SWAP3 SWAP1 SWAP3 MSTORE PUSH1 0x40 ADD SWAP1 KECCAK256 PUSH1 0x2 ADD SLOAD PUSH1 0x1 PUSH1 0x1 PUSH1 0xA0 SHL SUB AND EQ JUMPDEST ISZERO PUSH2 0xDE0 JUMPI PUSH2 0xDB4 PUSH1 0x2 DUP3 DUP2 SLOAD DUP2 LT PUSH2 0x4D8 JUMPI PUSH2 0x4D8 PUSH2 0x1466 JUMP JUMPDEST DUP4 DUP4 DUP2 MLOAD DUP2 LT PUSH2 0xDC6 JUMPI PUSH2 0xDC6 PUSH2 0x1466 JUMP JUMPDEST PUSH1 0x20 MUL PUSH1 0x20 ADD ADD DUP2 SWAP1 MSTORE POP DUP2 DUP1 PUSH2 0xDDC SWAP1 PUSH2 0x147C JUMP JUMPDEST SWAP3 POP POP JUMPDEST DUP1 PUSH2 0xDEA DUP2 PUSH2 0x147C JUMP JUMPDEST SWAP2 POP POP PUSH2 0xD07 JUMP JUMPDEST POP SWAP1 SWAP3 POP POP POP JUMPDEST SWAP3 SWAP2 POP POP JUMP JUMPDEST PUSH1 0x0 SLOAD PUSH1 0x1 PUSH1 0x1 PUSH1 0xA0 SHL SUB AND CALLER EQ PUSH2 0xE59 JUMPI PUSH1 0x40 MLOAD PUSH3 0x461BCD PUSH1 0xE5 SHL DUP2 MSTORE PUSH1 0x20 PUSH1 0x4 DUP3 ADD DUP2 SWAP1 MSTORE PUSH1 0x24 DUP3 ADD MSTORE PUSH32 0x4F776E61626C653A2063616C6C6572206973206E6F7420746865206F776E6572 PUSH1 0x44 DUP3 ADD MSTORE PUSH1 0x64 ADD PUSH2 0x76E JUMP JUMPDEST PUSH1 0x1 PUSH1 0x1 PUSH1 0xA0 SHL SUB DUP2 AND PUSH2 0xEBE JUMPI PUSH1 0x40 MLOAD PUSH3 0x461BCD PUSH1 0xE5 SHL DUP2 MSTORE PUSH1 0x20 PUSH1 0x4 DUP3 ADD MSTORE PUSH1 0x26 PUSH1 0x24 DUP3 ADD MSTORE PUSH32 0x4F776E61626C653A206E6577206F776E657220697320746865207A65726F2061 PUSH1 0x44 DUP3 ADD MSTORE PUSH6 0x646472657373 PUSH1 0xD0 SHL PUSH1 0x64 DUP3 ADD MSTORE PUSH1 0x84 ADD PUSH2 0x76E JUMP JUMPDEST PUSH2 0xEC7 DUP2 PUSH2 0x11A2 JUMP JUMPDEST POP JUMP JUMPDEST PUSH1 0x0 DUP2 DUP2 MSTORE PUSH1 0x1 PUSH1 0x20 MSTORE PUSH1 0x40 DUP2 KECCAK256 PUSH1 0x2 ADD SLOAD PUSH1 0x1 PUSH1 0x1 PUSH1 0xA0 SHL SUB AND SWAP1 DUP1 DUP1 JUMPDEST PUSH1 0x3 SLOAD DUP2 LT ISZERO PUSH2 0xF4E JUMPI DUP4 PUSH1 0x1 PUSH1 0x1 PUSH1 0xA0 SHL SUB AND PUSH1 0x3 DUP3 DUP2 SLOAD DUP2 LT PUSH2 0xF10 JUMPI PUSH2 0xF10 PUSH2 0x1466 JUMP JUMPDEST PUSH1 0x0 SWAP2 DUP3 MSTORE PUSH1 0x20 SWAP1 SWAP2 KECCAK256 ADD SLOAD PUSH1 0x1 PUSH1 0x1 PUSH1 0xA0 SHL SUB AND EQ ISZERO PUSH2 0xF3C JUMPI DUP3 PUSH2 0xF35 DUP2 PUSH2 0x147C JUMP JUMPDEST SWAP4 POP POP DUP1 SWAP2 POP JUMPDEST DUP1 PUSH2 0xF46 DUP2 PUSH2 0x147C JUMP JUMPDEST SWAP2 POP POP PUSH2 0xEE9 JUMP JUMPDEST POP DUP2 PUSH1 0x1 EQ ISZERO PUSH2 0x1006 JUMPI PUSH1 0x3 DUP1 SLOAD PUSH2 0xF68 SWAP1 PUSH1 0x1 SWAP1 PUSH2 0x1497 JUMP JUMPDEST DUP2 SLOAD DUP2 LT PUSH2 0xF78 JUMPI PUSH2 0xF78 PUSH2 0x1466 JUMP JUMPDEST PUSH1 0x0 SWAP2 DUP3 MSTORE PUSH1 0x20 SWAP1 SWAP2 KECCAK256 ADD SLOAD PUSH1 0x3 DUP1 SLOAD PUSH1 0x1 PUSH1 0x1 PUSH1 0xA0 SHL SUB SWAP1 SWAP3 AND SWAP2 DUP4 SWAP1 DUP2 LT PUSH2 0xFA4 JUMPI PUSH2 0xFA4 PUSH2 0x1466 JUMP JUMPDEST SWAP1 PUSH1 0x0 MSTORE PUSH1 0x20 PUSH1 0x0 KECCAK256 ADD PUSH1 0x0 PUSH2 0x100 EXP DUP2 SLOAD DUP2 PUSH1 0x1 PUSH1 0x1 PUSH1 0xA0 SHL SUB MUL NOT AND SWAP1 DUP4 PUSH1 0x1 PUSH1 0x1 PUSH1 0xA0 SHL SUB AND MUL OR SWAP1 SSTORE POP PUSH1 0x3 DUP1 SLOAD DUP1 PUSH2 0xFE3 JUMPI PUSH2 0xFE3 PUSH2 0x14AE JUMP JUMPDEST PUSH1 0x0 DUP3 DUP2 MSTORE PUSH1 0x20 SWAP1 KECCAK256 DUP2 ADD PUSH1 0x0 NOT SWAP1 DUP2 ADD DUP1 SLOAD PUSH1 0x1 PUSH1 0x1 PUSH1 0xA0 SHL SUB NOT AND SWAP1 SSTORE ADD SWAP1 SSTORE JUMPDEST PUSH1 0x0 JUMPDEST PUSH1 0x2 SLOAD DUP2 LT ISZERO PUSH2 0x104E JUMPI DUP5 PUSH1 0x2 DUP3 DUP2 SLOAD DUP2 LT PUSH2 0x1027 JUMPI PUSH2 0x1027 PUSH2 0x1466 JUMP JUMPDEST SWAP1 PUSH1 0x0 MSTORE PUSH1 0x20 PUSH1 0x0 KECCAK256 ADD SLOAD EQ ISZERO PUSH2 0x103C JUMPI DUP1 SWAP2 POP JUMPDEST DUP1 PUSH2 0x1046 DUP2 PUSH2 0x147C JUMP JUMPDEST SWAP2 POP POP PUSH2 0x1009 JUMP JUMPDEST POP PUSH1 0x2 DUP1 SLOAD PUSH2 0x105F SWAP1 PUSH1 0x1 SWAP1 PUSH2 0x1497 JUMP JUMPDEST DUP2 SLOAD DUP2 LT PUSH2 0x106F JUMPI PUSH2 0x106F PUSH2 0x1466 JUMP JUMPDEST SWAP1 PUSH1 0x0 MSTORE PUSH1 0x20 PUSH1 0x0 KECCAK256 ADD SLOAD PUSH1 0x2 DUP3 DUP2 SLOAD DUP2 LT PUSH2 0x108D JUMPI PUSH2 0x108D PUSH2 0x1466 JUMP JUMPDEST PUSH1 0x0 SWAP2 DUP3 MSTORE PUSH1 0x20 SWAP1 SWAP2 KECCAK256 ADD SSTORE PUSH1 0x2 DUP1 SLOAD DUP1 PUSH2 0x10AA JUMPI PUSH2 0x10AA PUSH2 0x14AE JUMP JUMPDEST PUSH1 0x0 DUP3 DUP2 MSTORE PUSH1 0x20 DUP1 DUP3 KECCAK256 DUP4 ADD PUSH1 0x0 NOT SWAP1 DUP2 ADD DUP4 SWAP1 SSTORE SWAP1 SWAP3 ADD SWAP1 SWAP3 SSTORE SWAP5 DUP2 MSTORE PUSH1 0x1 SWAP5 DUP6 SWAP1 MSTORE PUSH1 0x40 DUP2 KECCAK256 DUP2 DUP2 SSTORE SWAP5 DUP6 ADD DUP2 SWAP1 SSTORE PUSH1 0x2 DUP6 ADD DUP1 SLOAD PUSH1 0x1 PUSH1 0x1 PUSH1 0xA0 SHL SUB NOT AND SWAP1 SSTORE PUSH1 0x3 DUP6 ADD DUP2 SWAP1 SSTORE PUSH1 0x4 DUP6 ADD DUP2 SWAP1 SSTORE PUSH1 0x5 DUP6 ADD SSTORE POP POP POP PUSH1 0x6 ADD DUP1 SLOAD PUSH1 0xFF NOT AND SWAP1 SSTORE JUMP JUMPDEST PUSH1 0x60 PUSH1 0x2 DUP1 SLOAD DUP1 PUSH1 0x20 MUL PUSH1 0x20 ADD PUSH1 0x40 MLOAD SWAP1 DUP2 ADD PUSH1 0x40 MSTORE DUP1 SWAP3 SWAP2 SWAP1 DUP2 DUP2 MSTORE PUSH1 0x20 ADD DUP3 DUP1 SLOAD DUP1 ISZERO PUSH2 0x5A4 JUMPI PUSH1 0x20 MUL DUP3 ADD SWAP2 SWAP1 PUSH1 0x0 MSTORE PUSH1 0x20 PUSH1 0x0 KECCAK256 SWAP1 JUMPDEST DUP2 SLOAD DUP2 MSTORE PUSH1 0x20 ADD SWAP1 PUSH1 0x1 ADD SWAP1 DUP1 DUP4 GT PUSH2 0x114A JUMPI POP POP POP POP POP SWAP1 POP SWAP1 JUMP JUMPDEST PUSH1 0x40 MLOAD PUSH1 0x1 PUSH1 0x1 PUSH1 0xA0 SHL SUB DUP4 AND SWAP1 DUP3 ISZERO PUSH2 0x8FC MUL SWAP1 DUP4 SWAP1 PUSH1 0x0 DUP2 DUP2 DUP2 DUP6 DUP9 DUP9 CALL SWAP4 POP POP POP POP ISZERO DUP1 ISZERO PUSH2 0x119D JUMPI RETURNDATASIZE PUSH1 0x0 DUP1 RETURNDATACOPY RETURNDATASIZE PUSH1 0x0 REVERT JUMPDEST POP POP POP JUMP JUMPDEST PUSH1 0x0 DUP1 SLOAD PUSH1 0x1 PUSH1 0x1 PUSH1 0xA0 SHL SUB DUP4 DUP2 AND PUSH1 0x1 PUSH1 0x1 PUSH1 0xA0 SHL SUB NOT DUP4 AND DUP2 OR DUP5 SSTORE PUSH1 0x40 MLOAD SWAP2 SWAP1 SWAP3 AND SWAP3 DUP4 SWAP2 PUSH32 0x8BE0079C531659141344CD1FD0A4F28419497F9722A3DAAFE3B4186F6B6457E0 SWAP2 SWAP1 LOG3 POP POP JUMP JUMPDEST PUSH1 0x40 MLOAD DUP1 PUSH1 0xE0 ADD PUSH1 0x40 MSTORE DUP1 PUSH1 0x0 DUP1 NOT AND DUP2 MSTORE PUSH1 0x20 ADD PUSH1 0x0 DUP2 MSTORE PUSH1 0x20 ADD PUSH1 0x0 PUSH1 0x1 PUSH1 0x1 PUSH1 0xA0 SHL SUB AND DUP2 MSTORE PUSH1 0x20 ADD PUSH1 0x0 DUP2 MSTORE PUSH1 0x20 ADD PUSH1 0x0 DUP2 MSTORE PUSH1 0x20 ADD PUSH1 0x0 DUP2 MSTORE PUSH1 0x20 ADD PUSH1 0x0 ISZERO ISZERO DUP2 MSTORE POP SWAP1 JUMP JUMPDEST PUSH1 0x0 PUSH1 0x20 DUP3 DUP5 SUB SLT ISZERO PUSH2 0x124F JUMPI PUSH1 0x0 DUP1 REVERT JUMPDEST POP CALLDATALOAD SWAP2 SWAP1 POP JUMP JUMPDEST DUP1 MLOAD DUP3 MSTORE PUSH1 0x20 DUP1 DUP3 ADD MLOAD SWAP1 DUP4 ADD MSTORE PUSH1 0x40 DUP1 DUP3 ADD MLOAD PUSH1 0x1 PUSH1 0x1 PUSH1 0xA0 SHL SUB AND SWAP1 DUP4 ADD MSTORE PUSH1 0x60 DUP1 DUP3 ADD MLOAD SWAP1 DUP4 ADD MSTORE PUSH1 0x80 DUP1 DUP3 ADD MLOAD SWAP1 DUP4 ADD MSTORE PUSH1 0xA0 DUP1 DUP3 ADD MLOAD SWAP1 DUP4 ADD MSTORE PUSH1 0xC0 SWAP1 DUP2 ADD MLOAD ISZERO ISZERO SWAP2 ADD MSTORE JUMP JUMPDEST PUSH1 0xE0 DUP2 ADD PUSH2 0xDF9 DUP3 DUP5 PUSH2 0x1256 JUMP JUMPDEST PUSH1 0x20 DUP1 DUP3 MSTORE DUP3 MLOAD DUP3 DUP3 ADD DUP2 SWAP1 MSTORE PUSH1 0x0 SWAP2 SWAP1 DUP5 DUP3 ADD SWAP1 PUSH1 0x40 DUP6 ADD SWAP1 DUP5 JUMPDEST DUP2 DUP2 LT ISZERO PUSH2 0x12F2 JUMPI PUSH2 0x12DF DUP4 DUP6 MLOAD PUSH2 0x1256 JUMP JUMPDEST SWAP3 DUP5 ADD SWAP3 PUSH1 0xE0 SWAP3 SWAP1 SWAP3 ADD SWAP2 PUSH1 0x1 ADD PUSH2 0x12CC JUMP JUMPDEST POP SWAP1 SWAP7 SWAP6 POP POP POP POP POP POP JUMP JUMPDEST PUSH1 0x20 DUP1 DUP3 MSTORE DUP3 MLOAD DUP3 DUP3 ADD DUP2 SWAP1 MSTORE PUSH1 0x0 SWAP2 SWAP1 DUP5 DUP3 ADD SWAP1 PUSH1 0x40 DUP6 ADD SWAP1 DUP5 JUMPDEST DUP2 DUP2 LT ISZERO PUSH2 0x12F2 JUMPI DUP4 MLOAD PUSH1 0x1 PUSH1 0x1 PUSH1 0xA0 SHL SUB AND DUP4 MSTORE SWAP3 DUP5 ADD SWAP3 SWAP2 DUP5 ADD SWAP2 PUSH1 0x1 ADD PUSH2 0x131A JUMP JUMPDEST PUSH1 0x0 DUP1 PUSH1 0x40 DUP4 DUP6 SUB SLT ISZERO PUSH2 0x1352 JUMPI PUSH1 0x0 DUP1 REVERT JUMPDEST POP POP DUP1 CALLDATALOAD SWAP3 PUSH1 0x20 SWAP1 SWAP2 ADD CALLDATALOAD SWAP2 POP JUMP JUMPDEST DUP1 CALLDATALOAD PUSH1 0x1 PUSH1 0x1 PUSH1 0xA0 SHL SUB DUP2 AND DUP2 EQ PUSH2 0x1378 JUMPI PUSH1 0x0 DUP1 REVERT JUMPDEST SWAP2 SWAP1 POP JUMP JUMPDEST PUSH1 0x0 PUSH1 0x20 DUP3 DUP5 SUB SLT ISZERO PUSH2 0x138F JUMPI PUSH1 0x0 DUP1 REVERT JUMPDEST PUSH2 0x1398 DUP3 PUSH2 0x1361 JUMP JUMPDEST SWAP4 SWAP3 POP POP POP JUMP JUMPDEST PUSH1 0x0 DUP1 PUSH1 0x40 DUP4 DUP6 SUB SLT ISZERO PUSH2 0x13B2 JUMPI PUSH1 0x0 DUP1 REVERT JUMPDEST DUP3 CALLDATALOAD SWAP2 POP PUSH2 0x13C2 PUSH1 0x20 DUP5 ADD PUSH2 0x1361 JUMP JUMPDEST SWAP1 POP SWAP3 POP SWAP3 SWAP1 POP JUMP JUMPDEST PUSH1 0x20 DUP1 DUP3 MSTORE DUP3 MLOAD DUP3 DUP3 ADD DUP2 SWAP1 MSTORE PUSH1 0x0 SWAP2 SWAP1 DUP5 DUP3 ADD SWAP1 PUSH1 0x40 DUP6 ADD SWAP1 DUP5 JUMPDEST DUP2 DUP2 LT ISZERO PUSH2 0x12F2 JUMPI DUP4 MLOAD DUP4 MSTORE SWAP3 DUP5 ADD SWAP3 SWAP2 DUP5 ADD SWAP2 PUSH1 0x1 ADD PUSH2 0x13E7 JUMP JUMPDEST PUSH4 0x4E487B71 PUSH1 0xE0 SHL PUSH1 0x0 MSTORE PUSH1 0x11 PUSH1 0x4 MSTORE PUSH1 0x24 PUSH1 0x0 REVERT JUMPDEST PUSH1 0x0 DUP2 PUSH1 0x0 NOT DIV DUP4 GT DUP3 ISZERO ISZERO AND ISZERO PUSH2 0x1433 JUMPI PUSH2 0x1433 PUSH2 0x1403 JUMP JUMPDEST POP MUL SWAP1 JUMP JUMPDEST PUSH1 0x0 DUP3 NOT DUP3 GT ISZERO PUSH2 0x144B JUMPI PUSH2 0x144B PUSH2 0x1403 JUMP JUMPDEST POP ADD SWAP1 JUMP JUMPDEST PUSH4 0x4E487B71 PUSH1 0xE0 SHL PUSH1 0x0 MSTORE PUSH1 0x41 PUSH1 0x4 MSTORE PUSH1 0x24 PUSH1 0x0 REVERT JUMPDEST PUSH4 0x4E487B71 PUSH1 0xE0 SHL PUSH1 0x0 MSTORE PUSH1 0x32 PUSH1 0x4 MSTORE PUSH1 0x24 PUSH1 0x0 REVERT JUMPDEST PUSH1 0x0 PUSH1 0x0 NOT DUP3 EQ ISZERO PUSH2 0x1490 JUMPI PUSH2 0x1490 PUSH2 0x1403 JUMP JUMPDEST POP PUSH1 0x1 ADD SWAP1 JUMP JUMPDEST PUSH1 0x0 DUP3 DUP3 LT ISZERO PUSH2 0x14A9 JUMPI PUSH2 0x14A9 PUSH2 0x1403 JUMP JUMPDEST POP SUB SWAP1 JUMP JUMPDEST PUSH4 0x4E487B71 PUSH1 0xE0 SHL PUSH1 0x0 MSTORE PUSH1 0x31 PUSH1 0x4 MSTORE PUSH1 0x24 PUSH1 0x0 REVERT INVALID LOG2 PUSH5 0x6970667358 0x22 SLT KECCAK256 0xDB 0xB6 0x4E DUP11 SIGNEXTEND MSIZE 0xE7 RETURN DUP6 CODECOPY EXTCODEHASH PUSH10 0xFEFD12DF4B0AF4D5EE1F CREATE PUSH23 0x80BAE3C7E664BDFD64736F6C634300080C003300000000 ",
  "sha1": "effcdf536c1230cb9dc9ef17bc02f43f90aac373",
  "source": "// SPDX-License-Identifier: MIT\n\npragma solidity ^0.8.10;\n\nimport \"./CCollection.sol\";\n\n\nimport \"@openzeppelin/contracts/access/Ownable.sol\";\n\n\ncontract CLendingManager is Ownable, CCollection {\n\n    event Debug (uint256 info);\n\n    function getOwner() external view returns (address)  {\n        return owner();\n    }\n\n    function getBalance() external view returns (uint256) {\n        return address(this).balance;\n    }\n    \n   function borrow(uint256) external view returns (uint256) {\n        uint256 _sum_collaterals;\n        Element[] memory collaterals = getElementByElementTypeAndAddress(2, msg.sender);\n\n        for (uint i = 0; i < collaterals.length; i++) {\n            _sum_collaterals += collaterals[i].amount;\n        }\n        \n        return _sum_collaterals;\n    }\n \n\n}",
  "sourcePath": "contracts/CLendingManager.sol",
  "type": "contract"
}