{
  "abi": [
    {
      "anonymous": false,
      "inputs": [
        {
          "indexed": false,
          "internalType": "uint256",
          "name": "",
          "type": "uint256"
        }
      ],
      "name": "Debug",
      "type": "event"
    },
    {
      "anonymous": false,
      "inputs": [
        {
          "indexed": true,
          "internalType": "address",
          "name": "previousOwner",
          "type": "address"
        },
        {
          "indexed": true,
          "internalType": "address",
          "name": "newOwner",
          "type": "address"
        }
      ],
      "name": "OwnershipTransferred",
      "type": "event"
    },
    {
      "inputs": [
        {
          "internalType": "uint256",
          "name": "duration_in_month",
          "type": "uint256"
        }
      ],
      "name": "addDeposit",
      "outputs": [],
      "stateMutability": "payable",
      "type": "function"
    },
    {
      "inputs": [
        {
          "internalType": "address payable",
          "name": "applicant",
          "type": "address"
        },
        {
          "internalType": "uint256",
          "name": "amount",
          "type": "uint256"
        },
        {
          "internalType": "uint256",
          "name": "duration_in_month",
          "type": "uint256"
        }
      ],
      "name": "applyForCredit",
      "outputs": [],
      "stateMutability": "nonpayable",
      "type": "function"
    },
    {
      "inputs": [
        {
          "internalType": "bytes32",
          "name": "_key",
          "type": "bytes32"
        }
      ],
      "name": "containsDeposit",
      "outputs": [
        {
          "internalType": "bool",
          "name": "",
          "type": "bool"
        }
      ],
      "stateMutability": "view",
      "type": "function"
    },
    {
      "inputs": [],
      "name": "getApplications",
      "outputs": [
        {
          "components": [
            {
              "internalType": "bytes32",
              "name": "id",
              "type": "bytes32"
            },
            {
              "internalType": "address",
              "name": "borrower",
              "type": "address"
            },
            {
              "internalType": "uint256",
              "name": "amount",
              "type": "uint256"
            },
            {
              "internalType": "bool",
              "name": "confirmed",
              "type": "bool"
            },
            {
              "internalType": "uint256",
              "name": "timestamp",
              "type": "uint256"
            },
            {
              "internalType": "uint256",
              "name": "duration_in_month",
              "type": "uint256"
            }
          ],
          "internalType": "struct CBorrow.Credit[]",
          "name": "",
          "type": "tuple[]"
        }
      ],
      "stateMutability": "view",
      "type": "function"
    },
    {
      "inputs": [],
      "name": "getDepositAddresses",
      "outputs": [
        {
          "internalType": "address[]",
          "name": "",
          "type": "address[]"
        }
      ],
      "stateMutability": "view",
      "type": "function"
    },
    {
      "inputs": [
        {
          "internalType": "bytes32",
          "name": "_key",
          "type": "bytes32"
        }
      ],
      "name": "getDepositByKey",
      "outputs": [
        {
          "components": [
            {
              "internalType": "address",
              "name": "depositor",
              "type": "address"
            },
            {
              "internalType": "uint256",
              "name": "amount",
              "type": "uint256"
            },
            {
              "internalType": "uint256",
              "name": "timestamp",
              "type": "uint256"
            },
            {
              "internalType": "uint256",
              "name": "duration_in_month",
              "type": "uint256"
            }
          ],
          "internalType": "struct Deposit",
          "name": "",
          "type": "tuple"
        }
      ],
      "stateMutability": "view",
      "type": "function"
    },
    {
      "inputs": [],
      "name": "getDepositKeys",
      "outputs": [
        {
          "internalType": "bytes32[]",
          "name": "",
          "type": "bytes32[]"
        }
      ],
      "stateMutability": "view",
      "type": "function"
    },
    {
      "inputs": [
        {
          "internalType": "address",
          "name": "_address",
          "type": "address"
        }
      ],
      "name": "getDepositbyAddress",
      "outputs": [
        {
          "components": [
            {
              "internalType": "address",
              "name": "depositor",
              "type": "address"
            },
            {
              "internalType": "uint256",
              "name": "amount",
              "type": "uint256"
            },
            {
              "internalType": "uint256",
              "name": "timestamp",
              "type": "uint256"
            },
            {
              "internalType": "uint256",
              "name": "duration_in_month",
              "type": "uint256"
            }
          ],
          "internalType": "struct Deposit[]",
          "name": "",
          "type": "tuple[]"
        }
      ],
      "stateMutability": "view",
      "type": "function"
    },
    {
      "inputs": [],
      "name": "getOwner",
      "outputs": [
        {
          "internalType": "address",
          "name": "",
          "type": "address"
        }
      ],
      "stateMutability": "view",
      "type": "function"
    },
    {
      "inputs": [],
      "name": "owner",
      "outputs": [
        {
          "internalType": "address",
          "name": "",
          "type": "address"
        }
      ],
      "stateMutability": "view",
      "type": "function"
    },
    {
      "inputs": [
        {
          "internalType": "bytes32",
          "name": "_key",
          "type": "bytes32"
        }
      ],
      "name": "removeDeposit",
      "outputs": [],
      "stateMutability": "nonpayable",
      "type": "function"
    },
    {
      "inputs": [],
      "name": "renounceOwnership",
      "outputs": [],
      "stateMutability": "nonpayable",
      "type": "function"
    },
    {
      "inputs": [],
      "name": "sizeDeposit",
      "outputs": [
        {
          "internalType": "uint256",
          "name": "",
          "type": "uint256"
        }
      ],
      "stateMutability": "view",
      "type": "function"
    },
    {
      "inputs": [
        {
          "internalType": "address",
          "name": "newOwner",
          "type": "address"
        }
      ],
      "name": "transferOwnership",
      "outputs": [],
      "stateMutability": "nonpayable",
      "type": "function"
    }
  ],
  "bytecode": "6080604052600060045534801561001557600080fd5b5061001f33610024565b610074565b600080546001600160a01b038381166001600160a01b0319831681178455604051919092169283917f8be0079c531659141344cd1fd0a4f28419497f9722a3daafe3b4186f6b6457e09190a35050565b61115c806100836000396000f3fe6080604052600436106100dd5760003560e01c80638da5cb5b1161007f578063cc7985b611610059578063cc7985b614610250578063d0b2c6f214610272578063e2a30f1614610294578063f2fde38b146102f057600080fd5b80638da5cb5b146101ff578063a39d143b1461021d578063a6f1fd511461023d57600080fd5b8063715018a6116100bb578063715018a6146101495780637a4b41901461015e57806387d65782146101a0578063893d20e8146101cd57600080fd5b80632a3130c4146100e2578063358876cf1461010557806343900e7814610127575b600080fd5b3480156100ee57600080fd5b506002546040519081526020015b60405180910390f35b34801561011157600080fd5b50610125610120366004610e6f565b610310565b005b34801561013357600080fd5b5061013c61053e565b6040516100fc9190610e88565b34801561015557600080fd5b506101256106c4565b34801561016a57600080fd5b50610190610179366004610e6f565b600090815260016020526040902060020154151590565b60405190151581526020016100fc565b3480156101ac57600080fd5b506101c06101bb366004610f20565b6106fa565b6040516100fc9190610f44565b3480156101d957600080fd5b506000546001600160a01b03165b6040516001600160a01b0390911681526020016100fc565b34801561020b57600080fd5b506000546001600160a01b03166101e7565b34801561022957600080fd5b50610125610238366004610fb9565b610909565b61012561024b366004610e6f565b610ac3565b34801561025c57600080fd5b50610265610c4a565b6040516100fc9190610fee565b34801561027e57600080fd5b50610287610cac565b6040516100fc919061102f565b3480156102a057600080fd5b506102b46102af366004610e6f565b610d03565b6040516100fc919081516001600160a01b0316815260208083015190820152604080830151908201526060918201519181019190915260800190565b3480156102fc57600080fd5b5061012561030b366004610f20565b610d84565b6000818152600160205260408120546001600160a01b03169080805b60035481101561039157836001600160a01b03166003828154811061035357610353611067565b6000918252602090912001546001600160a01b0316141561037f578261037881611093565b9350508091505b8061038981611093565b91505061032c565b50816001141561044957600380546103ab906001906110ae565b815481106103bb576103bb611067565b600091825260209091200154600380546001600160a01b0390921691839081106103e7576103e7611067565b9060005260206000200160006101000a8154816001600160a01b0302191690836001600160a01b031602179055506003805480610426576104266110c5565b600082815260209020810160001990810180546001600160a01b03191690550190555b60005b60025481101561049157846002828154811061046a5761046a611067565b9060005260206000200154141561047f578091505b8061048981611093565b91505061044c565b50600280546104a2906001906110ae565b815481106104b2576104b2611067565b9060005260206000200154600282815481106104d0576104d0611067565b60009182526020909120015560028054806104ed576104ed6110c5565b6000828152602080822083016000199081018390559092019092559481526001948590526040812080546001600160a01b031916815594850181905560028501819055600390940193909355505050565b6000546060906001600160a01b031633146105745760405162461bcd60e51b815260040161056b906110db565b60405180910390fd5b600060045467ffffffffffffffff81111561059157610591611110565b6040519080825280602002602001820160405280156105f157816020015b6040805160c08101825260008082526020808301829052928201819052606082018190526080820181905260a082015282526000199092019101816105af5790505b50905060005b6004548110156106be576000600560006008848154811061061a5761061a611067565b600091825260208083209091015483528281019390935260409182019020815160c0810183528154815260018201546001600160a01b031693810193909352600281015491830191909152600381015460ff161515606083015260048101546080830152600581015460a0830152845190925084908490811061069f5761069f611067565b60200260200101819052505080806106b690611093565b9150506105f7565b50905090565b6000546001600160a01b031633146106ee5760405162461bcd60e51b815260040161056b906110db565b6106f86000610e1f565b565b60606000805b60025481101561077657836001600160a01b0316600160006002848154811061072b5761072b611067565b600091825260208083209091015483528201929092526040019020546001600160a01b03161415610764578161076081611093565b9250505b8061076e81611093565b915050610700565b5060008167ffffffffffffffff81111561079257610792611110565b6040519080825280602002602001820160405280156107f757816020015b6107e4604051806080016040528060006001600160a01b031681526020016000815260200160008152602001600081525090565b8152602001906001900390816107b05790505b5090506000805b6002548110156108ff57856001600160a01b0316600160006002848154811061082957610829611067565b600091825260208083209091015483528201929092526040019020546001600160a01b031614156108ed57600160006002838154811061086b5761086b611067565b600091825260208083209091015483528281019390935260409182019020815160808101835281546001600160a01b0316815260018201549381019390935260028101549183019190915260030154606082015283518490849081106108d3576108d3611067565b602002602001018190525081806108e990611093565b9250505b806108f781611093565b9150506107fe565b5090949350505050565b81471161094d5760405162461bcd60e51b81526020600482015260126024820152714e6f7420656e6f7567682062616c616e636560701b604482015260640161056b565b60408051336020820152429181019190915260009060600160408051808303601f19018152828252805160209182012060c08401835280845233828501908152848401888152600160608701818152426080890190815260a089018b815260008781526005988990528981209a518b559551938a0180546001600160a01b0319166001600160a01b03958616179055935160028a0155905160038901805460ff19169115159190911790555160048801559051959093019490945591519193508616916108fc861502918691818181858888f19350505050158015610a36573d6000803e3d6000fd5b506007805460018181019092557fa66cc928b5edb82af9bd49922954155ab7b0942694bea4ce44661d9a8736c6880180546001600160a01b0319163317905560088054918201815560009081527ff3f7a9fe364faab93b216da50a3214154f22a0a2b415b23a84c8169e8b636ee39091018290556004805491610ab883611093565b919050555050505050565b60003342610ad060025490565b604080516001600160a01b039094166020850152830191909152606082015260800160408051808303601f1901815282825280516020918201206080840183523384523482850190815242858501908152606086018881526000848152600195869052958620875181546001600160a01b0319166001600160a01b03909116178155925183860155905160028084019190915590516003909201919091558054928301815583527f405787fa12a823e0f2b7631cc41b3ba8828b3321ca811111fa75cd3aa3bb5ace9091018190559250805b600354811015610bfb57336001600160a01b031660038281548110610bc957610bc9611067565b6000918252602090912001546001600160a01b03161415610be957600191505b80610bf381611093565b915050610ba2565b5080610c4457600380546001810182556000919091527fc2575a0e9e593c00f959f8c92f12db2869c3395a3b0502d05e2516446f71f85b0180546001600160a01b031916331790555b50505050565b60606003805480602002602001604051908101604052809291908181526020018280548015610ca257602002820191906000526020600020905b81546001600160a01b03168152600190910190602001808311610c84575b5050505050905090565b60606002805480602002602001604051908101604052809291908181526020018280548015610ca257602002820191906000526020600020905b815481526020019060010190808311610ce6575050505050905090565b610d37604051806080016040528060006001600160a01b031681526020016000815260200160008152602001600081525090565b50600090815260016020818152604092839020835160808101855281546001600160a01b031681529281015491830191909152600281015492820192909252600390910154606082015290565b6000546001600160a01b03163314610dae5760405162461bcd60e51b815260040161056b906110db565b6001600160a01b038116610e135760405162461bcd60e51b815260206004820152602660248201527f4f776e61626c653a206e6577206f776e657220697320746865207a65726f206160448201526564647265737360d01b606482015260840161056b565b610e1c81610e1f565b50565b600080546001600160a01b038381166001600160a01b0319831681178455604051919092169283917f8be0079c531659141344cd1fd0a4f28419497f9722a3daafe3b4186f6b6457e09190a35050565b600060208284031215610e8157600080fd5b5035919050565b602080825282518282018190526000919060409081850190868401855b82811015610efe57815180518552868101516001600160a01b03168786015285810151868601526060808201511515908601526080808201519086015260a0908101519085015260c09093019290850190600101610ea5565b5091979650505050505050565b6001600160a01b0381168114610e1c57600080fd5b600060208284031215610f3257600080fd5b8135610f3d81610f0b565b9392505050565b6020808252825182820181905260009190848201906040850190845b81811015610fad57610f9a83855180516001600160a01b031682526020808201519083015260408082015190830152606090810151910152565b9284019260809290920191600101610f60565b50909695505050505050565b600080600060608486031215610fce57600080fd5b8335610fd981610f0b565b95602085013595506040909401359392505050565b6020808252825182820181905260009190848201906040850190845b81811015610fad5783516001600160a01b03168352928401929184019160010161100a565b6020808252825182820181905260009190848201906040850190845b81811015610fad5783518352928401929184019160010161104b565b634e487b7160e01b600052603260045260246000fd5b634e487b7160e01b600052601160045260246000fd5b60006000198214156110a7576110a761107d565b5060010190565b6000828210156110c0576110c061107d565b500390565b634e487b7160e01b600052603160045260246000fd5b6020808252818101527f4f776e61626c653a2063616c6c6572206973206e6f7420746865206f776e6572604082015260600190565b634e487b7160e01b600052604160045260246000fdfea264697066735822122039efdeb1795a19364556f8c7cb7ff778aa459e3a4e50a4d01ed5bdc6a887c60764736f6c634300080b0033",
  "bytecodeSha1": "41200e23becf8a64f2df0c77920a15f3e5ccb9df",
  "compiler": {
    "evm_version": "istanbul",
    "optimizer": {
      "enabled": true,
      "runs": 200
    },
    "version": "0.8.11+commit.d7f03943"
  },
  "contractName": "CLendingManager",
  "language": "Solidity",
  "natspec": {
    "kind": "dev",
    "methods": {
      "owner()": {
        "details": "Returns the address of the current owner."
      },
      "renounceOwnership()": {
        "details": "Leaves the contract without owner. It will not be possible to call `onlyOwner` functions anymore. Can only be called by the current owner. NOTE: Renouncing ownership will leave the contract without an owner, thereby removing any functionality that is only available to the owner."
      },
      "transferOwnership(address)": {
        "details": "Transfers ownership of the contract to a new account (`newOwner`). Can only be called by the current owner."
      }
    },
    "version": 1
  },
  "opcodes": "PUSH1 0x80 PUSH1 0x40 MSTORE PUSH1 0x4 CALLDATASIZE LT PUSH2 0xDD JUMPI PUSH1 0x0 CALLDATALOAD PUSH1 0xE0 SHR DUP1 PUSH4 0x8DA5CB5B GT PUSH2 0x7F JUMPI DUP1 PUSH4 0xCC7985B6 GT PUSH2 0x59 JUMPI DUP1 PUSH4 0xCC7985B6 EQ PUSH2 0x250 JUMPI DUP1 PUSH4 0xD0B2C6F2 EQ PUSH2 0x272 JUMPI DUP1 PUSH4 0xE2A30F16 EQ PUSH2 0x294 JUMPI DUP1 PUSH4 0xF2FDE38B EQ PUSH2 0x2F0 JUMPI PUSH1 0x0 DUP1 REVERT JUMPDEST DUP1 PUSH4 0x8DA5CB5B EQ PUSH2 0x1FF JUMPI DUP1 PUSH4 0xA39D143B EQ PUSH2 0x21D JUMPI DUP1 PUSH4 0xA6F1FD51 EQ PUSH2 0x23D JUMPI PUSH1 0x0 DUP1 REVERT JUMPDEST DUP1 PUSH4 0x715018A6 GT PUSH2 0xBB JUMPI DUP1 PUSH4 0x715018A6 EQ PUSH2 0x149 JUMPI DUP1 PUSH4 0x7A4B4190 EQ PUSH2 0x15E JUMPI DUP1 PUSH4 0x87D65782 EQ PUSH2 0x1A0 JUMPI DUP1 PUSH4 0x893D20E8 EQ PUSH2 0x1CD JUMPI PUSH1 0x0 DUP1 REVERT JUMPDEST DUP1 PUSH4 0x2A3130C4 EQ PUSH2 0xE2 JUMPI DUP1 PUSH4 0x358876CF EQ PUSH2 0x105 JUMPI DUP1 PUSH4 0x43900E78 EQ PUSH2 0x127 JUMPI JUMPDEST PUSH1 0x0 DUP1 REVERT JUMPDEST CALLVALUE DUP1 ISZERO PUSH2 0xEE JUMPI PUSH1 0x0 DUP1 REVERT JUMPDEST POP PUSH1 0x2 SLOAD PUSH1 0x40 MLOAD SWAP1 DUP2 MSTORE PUSH1 0x20 ADD JUMPDEST PUSH1 0x40 MLOAD DUP1 SWAP2 SUB SWAP1 RETURN JUMPDEST CALLVALUE DUP1 ISZERO PUSH2 0x111 JUMPI PUSH1 0x0 DUP1 REVERT JUMPDEST POP PUSH2 0x125 PUSH2 0x120 CALLDATASIZE PUSH1 0x4 PUSH2 0xE6F JUMP JUMPDEST PUSH2 0x310 JUMP JUMPDEST STOP JUMPDEST CALLVALUE DUP1 ISZERO PUSH2 0x133 JUMPI PUSH1 0x0 DUP1 REVERT JUMPDEST POP PUSH2 0x13C PUSH2 0x53E JUMP JUMPDEST PUSH1 0x40 MLOAD PUSH2 0xFC SWAP2 SWAP1 PUSH2 0xE88 JUMP JUMPDEST CALLVALUE DUP1 ISZERO PUSH2 0x155 JUMPI PUSH1 0x0 DUP1 REVERT JUMPDEST POP PUSH2 0x125 PUSH2 0x6C4 JUMP JUMPDEST CALLVALUE DUP1 ISZERO PUSH2 0x16A JUMPI PUSH1 0x0 DUP1 REVERT JUMPDEST POP PUSH2 0x190 PUSH2 0x179 CALLDATASIZE PUSH1 0x4 PUSH2 0xE6F JUMP JUMPDEST PUSH1 0x0 SWAP1 DUP2 MSTORE PUSH1 0x1 PUSH1 0x20 MSTORE PUSH1 0x40 SWAP1 KECCAK256 PUSH1 0x2 ADD SLOAD ISZERO ISZERO SWAP1 JUMP JUMPDEST PUSH1 0x40 MLOAD SWAP1 ISZERO ISZERO DUP2 MSTORE PUSH1 0x20 ADD PUSH2 0xFC JUMP JUMPDEST CALLVALUE DUP1 ISZERO PUSH2 0x1AC JUMPI PUSH1 0x0 DUP1 REVERT JUMPDEST POP PUSH2 0x1C0 PUSH2 0x1BB CALLDATASIZE PUSH1 0x4 PUSH2 0xF20 JUMP JUMPDEST PUSH2 0x6FA JUMP JUMPDEST PUSH1 0x40 MLOAD PUSH2 0xFC SWAP2 SWAP1 PUSH2 0xF44 JUMP JUMPDEST CALLVALUE DUP1 ISZERO PUSH2 0x1D9 JUMPI PUSH1 0x0 DUP1 REVERT JUMPDEST POP PUSH1 0x0 SLOAD PUSH1 0x1 PUSH1 0x1 PUSH1 0xA0 SHL SUB AND JUMPDEST PUSH1 0x40 MLOAD PUSH1 0x1 PUSH1 0x1 PUSH1 0xA0 SHL SUB SWAP1 SWAP2 AND DUP2 MSTORE PUSH1 0x20 ADD PUSH2 0xFC JUMP JUMPDEST CALLVALUE DUP1 ISZERO PUSH2 0x20B JUMPI PUSH1 0x0 DUP1 REVERT JUMPDEST POP PUSH1 0x0 SLOAD PUSH1 0x1 PUSH1 0x1 PUSH1 0xA0 SHL SUB AND PUSH2 0x1E7 JUMP JUMPDEST CALLVALUE DUP1 ISZERO PUSH2 0x229 JUMPI PUSH1 0x0 DUP1 REVERT JUMPDEST POP PUSH2 0x125 PUSH2 0x238 CALLDATASIZE PUSH1 0x4 PUSH2 0xFB9 JUMP JUMPDEST PUSH2 0x909 JUMP JUMPDEST PUSH2 0x125 PUSH2 0x24B CALLDATASIZE PUSH1 0x4 PUSH2 0xE6F JUMP JUMPDEST PUSH2 0xAC3 JUMP JUMPDEST CALLVALUE DUP1 ISZERO PUSH2 0x25C JUMPI PUSH1 0x0 DUP1 REVERT JUMPDEST POP PUSH2 0x265 PUSH2 0xC4A JUMP JUMPDEST PUSH1 0x40 MLOAD PUSH2 0xFC SWAP2 SWAP1 PUSH2 0xFEE JUMP JUMPDEST CALLVALUE DUP1 ISZERO PUSH2 0x27E JUMPI PUSH1 0x0 DUP1 REVERT JUMPDEST POP PUSH2 0x287 PUSH2 0xCAC JUMP JUMPDEST PUSH1 0x40 MLOAD PUSH2 0xFC SWAP2 SWAP1 PUSH2 0x102F JUMP JUMPDEST CALLVALUE DUP1 ISZERO PUSH2 0x2A0 JUMPI PUSH1 0x0 DUP1 REVERT JUMPDEST POP PUSH2 0x2B4 PUSH2 0x2AF CALLDATASIZE PUSH1 0x4 PUSH2 0xE6F JUMP JUMPDEST PUSH2 0xD03 JUMP JUMPDEST PUSH1 0x40 MLOAD PUSH2 0xFC SWAP2 SWAP1 DUP2 MLOAD PUSH1 0x1 PUSH1 0x1 PUSH1 0xA0 SHL SUB AND DUP2 MSTORE PUSH1 0x20 DUP1 DUP4 ADD MLOAD SWAP1 DUP3 ADD MSTORE PUSH1 0x40 DUP1 DUP4 ADD MLOAD SWAP1 DUP3 ADD MSTORE PUSH1 0x60 SWAP2 DUP3 ADD MLOAD SWAP2 DUP2 ADD SWAP2 SWAP1 SWAP2 MSTORE PUSH1 0x80 ADD SWAP1 JUMP JUMPDEST CALLVALUE DUP1 ISZERO PUSH2 0x2FC JUMPI PUSH1 0x0 DUP1 REVERT JUMPDEST POP PUSH2 0x125 PUSH2 0x30B CALLDATASIZE PUSH1 0x4 PUSH2 0xF20 JUMP JUMPDEST PUSH2 0xD84 JUMP JUMPDEST PUSH1 0x0 DUP2 DUP2 MSTORE PUSH1 0x1 PUSH1 0x20 MSTORE PUSH1 0x40 DUP2 KECCAK256 SLOAD PUSH1 0x1 PUSH1 0x1 PUSH1 0xA0 SHL SUB AND SWAP1 DUP1 DUP1 JUMPDEST PUSH1 0x3 SLOAD DUP2 LT ISZERO PUSH2 0x391 JUMPI DUP4 PUSH1 0x1 PUSH1 0x1 PUSH1 0xA0 SHL SUB AND PUSH1 0x3 DUP3 DUP2 SLOAD DUP2 LT PUSH2 0x353 JUMPI PUSH2 0x353 PUSH2 0x1067 JUMP JUMPDEST PUSH1 0x0 SWAP2 DUP3 MSTORE PUSH1 0x20 SWAP1 SWAP2 KECCAK256 ADD SLOAD PUSH1 0x1 PUSH1 0x1 PUSH1 0xA0 SHL SUB AND EQ ISZERO PUSH2 0x37F JUMPI DUP3 PUSH2 0x378 DUP2 PUSH2 0x1093 JUMP JUMPDEST SWAP4 POP POP DUP1 SWAP2 POP JUMPDEST DUP1 PUSH2 0x389 DUP2 PUSH2 0x1093 JUMP JUMPDEST SWAP2 POP POP PUSH2 0x32C JUMP JUMPDEST POP DUP2 PUSH1 0x1 EQ ISZERO PUSH2 0x449 JUMPI PUSH1 0x3 DUP1 SLOAD PUSH2 0x3AB SWAP1 PUSH1 0x1 SWAP1 PUSH2 0x10AE JUMP JUMPDEST DUP2 SLOAD DUP2 LT PUSH2 0x3BB JUMPI PUSH2 0x3BB PUSH2 0x1067 JUMP JUMPDEST PUSH1 0x0 SWAP2 DUP3 MSTORE PUSH1 0x20 SWAP1 SWAP2 KECCAK256 ADD SLOAD PUSH1 0x3 DUP1 SLOAD PUSH1 0x1 PUSH1 0x1 PUSH1 0xA0 SHL SUB SWAP1 SWAP3 AND SWAP2 DUP4 SWAP1 DUP2 LT PUSH2 0x3E7 JUMPI PUSH2 0x3E7 PUSH2 0x1067 JUMP JUMPDEST SWAP1 PUSH1 0x0 MSTORE PUSH1 0x20 PUSH1 0x0 KECCAK256 ADD PUSH1 0x0 PUSH2 0x100 EXP DUP2 SLOAD DUP2 PUSH1 0x1 PUSH1 0x1 PUSH1 0xA0 SHL SUB MUL NOT AND SWAP1 DUP4 PUSH1 0x1 PUSH1 0x1 PUSH1 0xA0 SHL SUB AND MUL OR SWAP1 SSTORE POP PUSH1 0x3 DUP1 SLOAD DUP1 PUSH2 0x426 JUMPI PUSH2 0x426 PUSH2 0x10C5 JUMP JUMPDEST PUSH1 0x0 DUP3 DUP2 MSTORE PUSH1 0x20 SWAP1 KECCAK256 DUP2 ADD PUSH1 0x0 NOT SWAP1 DUP2 ADD DUP1 SLOAD PUSH1 0x1 PUSH1 0x1 PUSH1 0xA0 SHL SUB NOT AND SWAP1 SSTORE ADD SWAP1 SSTORE JUMPDEST PUSH1 0x0 JUMPDEST PUSH1 0x2 SLOAD DUP2 LT ISZERO PUSH2 0x491 JUMPI DUP5 PUSH1 0x2 DUP3 DUP2 SLOAD DUP2 LT PUSH2 0x46A JUMPI PUSH2 0x46A PUSH2 0x1067 JUMP JUMPDEST SWAP1 PUSH1 0x0 MSTORE PUSH1 0x20 PUSH1 0x0 KECCAK256 ADD SLOAD EQ ISZERO PUSH2 0x47F JUMPI DUP1 SWAP2 POP JUMPDEST DUP1 PUSH2 0x489 DUP2 PUSH2 0x1093 JUMP JUMPDEST SWAP2 POP POP PUSH2 0x44C JUMP JUMPDEST POP PUSH1 0x2 DUP1 SLOAD PUSH2 0x4A2 SWAP1 PUSH1 0x1 SWAP1 PUSH2 0x10AE JUMP JUMPDEST DUP2 SLOAD DUP2 LT PUSH2 0x4B2 JUMPI PUSH2 0x4B2 PUSH2 0x1067 JUMP JUMPDEST SWAP1 PUSH1 0x0 MSTORE PUSH1 0x20 PUSH1 0x0 KECCAK256 ADD SLOAD PUSH1 0x2 DUP3 DUP2 SLOAD DUP2 LT PUSH2 0x4D0 JUMPI PUSH2 0x4D0 PUSH2 0x1067 JUMP JUMPDEST PUSH1 0x0 SWAP2 DUP3 MSTORE PUSH1 0x20 SWAP1 SWAP2 KECCAK256 ADD SSTORE PUSH1 0x2 DUP1 SLOAD DUP1 PUSH2 0x4ED JUMPI PUSH2 0x4ED PUSH2 0x10C5 JUMP JUMPDEST PUSH1 0x0 DUP3 DUP2 MSTORE PUSH1 0x20 DUP1 DUP3 KECCAK256 DUP4 ADD PUSH1 0x0 NOT SWAP1 DUP2 ADD DUP4 SWAP1 SSTORE SWAP1 SWAP3 ADD SWAP1 SWAP3 SSTORE SWAP5 DUP2 MSTORE PUSH1 0x1 SWAP5 DUP6 SWAP1 MSTORE PUSH1 0x40 DUP2 KECCAK256 DUP1 SLOAD PUSH1 0x1 PUSH1 0x1 PUSH1 0xA0 SHL SUB NOT AND DUP2 SSTORE SWAP5 DUP6 ADD DUP2 SWAP1 SSTORE PUSH1 0x2 DUP6 ADD DUP2 SWAP1 SSTORE PUSH1 0x3 SWAP1 SWAP5 ADD SWAP4 SWAP1 SWAP4 SSTORE POP POP POP JUMP JUMPDEST PUSH1 0x0 SLOAD PUSH1 0x60 SWAP1 PUSH1 0x1 PUSH1 0x1 PUSH1 0xA0 SHL SUB AND CALLER EQ PUSH2 0x574 JUMPI PUSH1 0x40 MLOAD PUSH3 0x461BCD PUSH1 0xE5 SHL DUP2 MSTORE PUSH1 0x4 ADD PUSH2 0x56B SWAP1 PUSH2 0x10DB JUMP JUMPDEST PUSH1 0x40 MLOAD DUP1 SWAP2 SUB SWAP1 REVERT JUMPDEST PUSH1 0x0 PUSH1 0x4 SLOAD PUSH8 0xFFFFFFFFFFFFFFFF DUP2 GT ISZERO PUSH2 0x591 JUMPI PUSH2 0x591 PUSH2 0x1110 JUMP JUMPDEST PUSH1 0x40 MLOAD SWAP1 DUP1 DUP3 MSTORE DUP1 PUSH1 0x20 MUL PUSH1 0x20 ADD DUP3 ADD PUSH1 0x40 MSTORE DUP1 ISZERO PUSH2 0x5F1 JUMPI DUP2 PUSH1 0x20 ADD JUMPDEST PUSH1 0x40 DUP1 MLOAD PUSH1 0xC0 DUP2 ADD DUP3 MSTORE PUSH1 0x0 DUP1 DUP3 MSTORE PUSH1 0x20 DUP1 DUP4 ADD DUP3 SWAP1 MSTORE SWAP3 DUP3 ADD DUP2 SWAP1 MSTORE PUSH1 0x60 DUP3 ADD DUP2 SWAP1 MSTORE PUSH1 0x80 DUP3 ADD DUP2 SWAP1 MSTORE PUSH1 0xA0 DUP3 ADD MSTORE DUP3 MSTORE PUSH1 0x0 NOT SWAP1 SWAP3 ADD SWAP2 ADD DUP2 PUSH2 0x5AF JUMPI SWAP1 POP JUMPDEST POP SWAP1 POP PUSH1 0x0 JUMPDEST PUSH1 0x4 SLOAD DUP2 LT ISZERO PUSH2 0x6BE JUMPI PUSH1 0x0 PUSH1 0x5 PUSH1 0x0 PUSH1 0x8 DUP5 DUP2 SLOAD DUP2 LT PUSH2 0x61A JUMPI PUSH2 0x61A PUSH2 0x1067 JUMP JUMPDEST PUSH1 0x0 SWAP2 DUP3 MSTORE PUSH1 0x20 DUP1 DUP4 KECCAK256 SWAP1 SWAP2 ADD SLOAD DUP4 MSTORE DUP3 DUP2 ADD SWAP4 SWAP1 SWAP4 MSTORE PUSH1 0x40 SWAP2 DUP3 ADD SWAP1 KECCAK256 DUP2 MLOAD PUSH1 0xC0 DUP2 ADD DUP4 MSTORE DUP2 SLOAD DUP2 MSTORE PUSH1 0x1 DUP3 ADD SLOAD PUSH1 0x1 PUSH1 0x1 PUSH1 0xA0 SHL SUB AND SWAP4 DUP2 ADD SWAP4 SWAP1 SWAP4 MSTORE PUSH1 0x2 DUP2 ADD SLOAD SWAP2 DUP4 ADD SWAP2 SWAP1 SWAP2 MSTORE PUSH1 0x3 DUP2 ADD SLOAD PUSH1 0xFF AND ISZERO ISZERO PUSH1 0x60 DUP4 ADD MSTORE PUSH1 0x4 DUP2 ADD SLOAD PUSH1 0x80 DUP4 ADD MSTORE PUSH1 0x5 DUP2 ADD SLOAD PUSH1 0xA0 DUP4 ADD MSTORE DUP5 MLOAD SWAP1 SWAP3 POP DUP5 SWAP1 DUP5 SWAP1 DUP2 LT PUSH2 0x69F JUMPI PUSH2 0x69F PUSH2 0x1067 JUMP JUMPDEST PUSH1 0x20 MUL PUSH1 0x20 ADD ADD DUP2 SWAP1 MSTORE POP POP DUP1 DUP1 PUSH2 0x6B6 SWAP1 PUSH2 0x1093 JUMP JUMPDEST SWAP2 POP POP PUSH2 0x5F7 JUMP JUMPDEST POP SWAP1 POP SWAP1 JUMP JUMPDEST PUSH1 0x0 SLOAD PUSH1 0x1 PUSH1 0x1 PUSH1 0xA0 SHL SUB AND CALLER EQ PUSH2 0x6EE JUMPI PUSH1 0x40 MLOAD PUSH3 0x461BCD PUSH1 0xE5 SHL DUP2 MSTORE PUSH1 0x4 ADD PUSH2 0x56B SWAP1 PUSH2 0x10DB JUMP JUMPDEST PUSH2 0x6F8 PUSH1 0x0 PUSH2 0xE1F JUMP JUMPDEST JUMP JUMPDEST PUSH1 0x60 PUSH1 0x0 DUP1 JUMPDEST PUSH1 0x2 SLOAD DUP2 LT ISZERO PUSH2 0x776 JUMPI DUP4 PUSH1 0x1 PUSH1 0x1 PUSH1 0xA0 SHL SUB AND PUSH1 0x1 PUSH1 0x0 PUSH1 0x2 DUP5 DUP2 SLOAD DUP2 LT PUSH2 0x72B JUMPI PUSH2 0x72B PUSH2 0x1067 JUMP JUMPDEST PUSH1 0x0 SWAP2 DUP3 MSTORE PUSH1 0x20 DUP1 DUP4 KECCAK256 SWAP1 SWAP2 ADD SLOAD DUP4 MSTORE DUP3 ADD SWAP3 SWAP1 SWAP3 MSTORE PUSH1 0x40 ADD SWAP1 KECCAK256 SLOAD PUSH1 0x1 PUSH1 0x1 PUSH1 0xA0 SHL SUB AND EQ ISZERO PUSH2 0x764 JUMPI DUP2 PUSH2 0x760 DUP2 PUSH2 0x1093 JUMP JUMPDEST SWAP3 POP POP JUMPDEST DUP1 PUSH2 0x76E DUP2 PUSH2 0x1093 JUMP JUMPDEST SWAP2 POP POP PUSH2 0x700 JUMP JUMPDEST POP PUSH1 0x0 DUP2 PUSH8 0xFFFFFFFFFFFFFFFF DUP2 GT ISZERO PUSH2 0x792 JUMPI PUSH2 0x792 PUSH2 0x1110 JUMP JUMPDEST PUSH1 0x40 MLOAD SWAP1 DUP1 DUP3 MSTORE DUP1 PUSH1 0x20 MUL PUSH1 0x20 ADD DUP3 ADD PUSH1 0x40 MSTORE DUP1 ISZERO PUSH2 0x7F7 JUMPI DUP2 PUSH1 0x20 ADD JUMPDEST PUSH2 0x7E4 PUSH1 0x40 MLOAD DUP1 PUSH1 0x80 ADD PUSH1 0x40 MSTORE DUP1 PUSH1 0x0 PUSH1 0x1 PUSH1 0x1 PUSH1 0xA0 SHL SUB AND DUP2 MSTORE PUSH1 0x20 ADD PUSH1 0x0 DUP2 MSTORE PUSH1 0x20 ADD PUSH1 0x0 DUP2 MSTORE PUSH1 0x20 ADD PUSH1 0x0 DUP2 MSTORE POP SWAP1 JUMP JUMPDEST DUP2 MSTORE PUSH1 0x20 ADD SWAP1 PUSH1 0x1 SWAP1 SUB SWAP1 DUP2 PUSH2 0x7B0 JUMPI SWAP1 POP JUMPDEST POP SWAP1 POP PUSH1 0x0 DUP1 JUMPDEST PUSH1 0x2 SLOAD DUP2 LT ISZERO PUSH2 0x8FF JUMPI DUP6 PUSH1 0x1 PUSH1 0x1 PUSH1 0xA0 SHL SUB AND PUSH1 0x1 PUSH1 0x0 PUSH1 0x2 DUP5 DUP2 SLOAD DUP2 LT PUSH2 0x829 JUMPI PUSH2 0x829 PUSH2 0x1067 JUMP JUMPDEST PUSH1 0x0 SWAP2 DUP3 MSTORE PUSH1 0x20 DUP1 DUP4 KECCAK256 SWAP1 SWAP2 ADD SLOAD DUP4 MSTORE DUP3 ADD SWAP3 SWAP1 SWAP3 MSTORE PUSH1 0x40 ADD SWAP1 KECCAK256 SLOAD PUSH1 0x1 PUSH1 0x1 PUSH1 0xA0 SHL SUB AND EQ ISZERO PUSH2 0x8ED JUMPI PUSH1 0x1 PUSH1 0x0 PUSH1 0x2 DUP4 DUP2 SLOAD DUP2 LT PUSH2 0x86B JUMPI PUSH2 0x86B PUSH2 0x1067 JUMP JUMPDEST PUSH1 0x0 SWAP2 DUP3 MSTORE PUSH1 0x20 DUP1 DUP4 KECCAK256 SWAP1 SWAP2 ADD SLOAD DUP4 MSTORE DUP3 DUP2 ADD SWAP4 SWAP1 SWAP4 MSTORE PUSH1 0x40 SWAP2 DUP3 ADD SWAP1 KECCAK256 DUP2 MLOAD PUSH1 0x80 DUP2 ADD DUP4 MSTORE DUP2 SLOAD PUSH1 0x1 PUSH1 0x1 PUSH1 0xA0 SHL SUB AND DUP2 MSTORE PUSH1 0x1 DUP3 ADD SLOAD SWAP4 DUP2 ADD SWAP4 SWAP1 SWAP4 MSTORE PUSH1 0x2 DUP2 ADD SLOAD SWAP2 DUP4 ADD SWAP2 SWAP1 SWAP2 MSTORE PUSH1 0x3 ADD SLOAD PUSH1 0x60 DUP3 ADD MSTORE DUP4 MLOAD DUP5 SWAP1 DUP5 SWAP1 DUP2 LT PUSH2 0x8D3 JUMPI PUSH2 0x8D3 PUSH2 0x1067 JUMP JUMPDEST PUSH1 0x20 MUL PUSH1 0x20 ADD ADD DUP2 SWAP1 MSTORE POP DUP2 DUP1 PUSH2 0x8E9 SWAP1 PUSH2 0x1093 JUMP JUMPDEST SWAP3 POP POP JUMPDEST DUP1 PUSH2 0x8F7 DUP2 PUSH2 0x1093 JUMP JUMPDEST SWAP2 POP POP PUSH2 0x7FE JUMP JUMPDEST POP SWAP1 SWAP5 SWAP4 POP POP POP POP JUMP JUMPDEST DUP2 SELFBALANCE GT PUSH2 0x94D JUMPI PUSH1 0x40 MLOAD PUSH3 0x461BCD PUSH1 0xE5 SHL DUP2 MSTORE PUSH1 0x20 PUSH1 0x4 DUP3 ADD MSTORE PUSH1 0x12 PUSH1 0x24 DUP3 ADD MSTORE PUSH18 0x4E6F7420656E6F7567682062616C616E6365 PUSH1 0x70 SHL PUSH1 0x44 DUP3 ADD MSTORE PUSH1 0x64 ADD PUSH2 0x56B JUMP JUMPDEST PUSH1 0x40 DUP1 MLOAD CALLER PUSH1 0x20 DUP3 ADD MSTORE TIMESTAMP SWAP2 DUP2 ADD SWAP2 SWAP1 SWAP2 MSTORE PUSH1 0x0 SWAP1 PUSH1 0x60 ADD PUSH1 0x40 DUP1 MLOAD DUP1 DUP4 SUB PUSH1 0x1F NOT ADD DUP2 MSTORE DUP3 DUP3 MSTORE DUP1 MLOAD PUSH1 0x20 SWAP2 DUP3 ADD KECCAK256 PUSH1 0xC0 DUP5 ADD DUP4 MSTORE DUP1 DUP5 MSTORE CALLER DUP3 DUP6 ADD SWAP1 DUP2 MSTORE DUP5 DUP5 ADD DUP9 DUP2 MSTORE PUSH1 0x1 PUSH1 0x60 DUP8 ADD DUP2 DUP2 MSTORE TIMESTAMP PUSH1 0x80 DUP10 ADD SWAP1 DUP2 MSTORE PUSH1 0xA0 DUP10 ADD DUP12 DUP2 MSTORE PUSH1 0x0 DUP8 DUP2 MSTORE PUSH1 0x5 SWAP9 DUP10 SWAP1 MSTORE DUP10 DUP2 KECCAK256 SWAP11 MLOAD DUP12 SSTORE SWAP6 MLOAD SWAP4 DUP11 ADD DUP1 SLOAD PUSH1 0x1 PUSH1 0x1 PUSH1 0xA0 SHL SUB NOT AND PUSH1 0x1 PUSH1 0x1 PUSH1 0xA0 SHL SUB SWAP6 DUP7 AND OR SWAP1 SSTORE SWAP4 MLOAD PUSH1 0x2 DUP11 ADD SSTORE SWAP1 MLOAD PUSH1 0x3 DUP10 ADD DUP1 SLOAD PUSH1 0xFF NOT AND SWAP2 ISZERO ISZERO SWAP2 SWAP1 SWAP2 OR SWAP1 SSTORE MLOAD PUSH1 0x4 DUP9 ADD SSTORE SWAP1 MLOAD SWAP6 SWAP1 SWAP4 ADD SWAP5 SWAP1 SWAP5 SSTORE SWAP2 MLOAD SWAP2 SWAP4 POP DUP7 AND SWAP2 PUSH2 0x8FC DUP7 ISZERO MUL SWAP2 DUP7 SWAP2 DUP2 DUP2 DUP2 DUP6 DUP9 DUP9 CALL SWAP4 POP POP POP POP ISZERO DUP1 ISZERO PUSH2 0xA36 JUMPI RETURNDATASIZE PUSH1 0x0 DUP1 RETURNDATACOPY RETURNDATASIZE PUSH1 0x0 REVERT JUMPDEST POP PUSH1 0x7 DUP1 SLOAD PUSH1 0x1 DUP2 DUP2 ADD SWAP1 SWAP3 SSTORE PUSH32 0xA66CC928B5EDB82AF9BD49922954155AB7B0942694BEA4CE44661D9A8736C688 ADD DUP1 SLOAD PUSH1 0x1 PUSH1 0x1 PUSH1 0xA0 SHL SUB NOT AND CALLER OR SWAP1 SSTORE PUSH1 0x8 DUP1 SLOAD SWAP2 DUP3 ADD DUP2 SSTORE PUSH1 0x0 SWAP1 DUP2 MSTORE PUSH32 0xF3F7A9FE364FAAB93B216DA50A3214154F22A0A2B415B23A84C8169E8B636EE3 SWAP1 SWAP2 ADD DUP3 SWAP1 SSTORE PUSH1 0x4 DUP1 SLOAD SWAP2 PUSH2 0xAB8 DUP4 PUSH2 0x1093 JUMP JUMPDEST SWAP2 SWAP1 POP SSTORE POP POP POP POP POP JUMP JUMPDEST PUSH1 0x0 CALLER TIMESTAMP PUSH2 0xAD0 PUSH1 0x2 SLOAD SWAP1 JUMP JUMPDEST PUSH1 0x40 DUP1 MLOAD PUSH1 0x1 PUSH1 0x1 PUSH1 0xA0 SHL SUB SWAP1 SWAP5 AND PUSH1 0x20 DUP6 ADD MSTORE DUP4 ADD SWAP2 SWAP1 SWAP2 MSTORE PUSH1 0x60 DUP3 ADD MSTORE PUSH1 0x80 ADD PUSH1 0x40 DUP1 MLOAD DUP1 DUP4 SUB PUSH1 0x1F NOT ADD DUP2 MSTORE DUP3 DUP3 MSTORE DUP1 MLOAD PUSH1 0x20 SWAP2 DUP3 ADD KECCAK256 PUSH1 0x80 DUP5 ADD DUP4 MSTORE CALLER DUP5 MSTORE CALLVALUE DUP3 DUP6 ADD SWAP1 DUP2 MSTORE TIMESTAMP DUP6 DUP6 ADD SWAP1 DUP2 MSTORE PUSH1 0x60 DUP7 ADD DUP9 DUP2 MSTORE PUSH1 0x0 DUP5 DUP2 MSTORE PUSH1 0x1 SWAP6 DUP7 SWAP1 MSTORE SWAP6 DUP7 KECCAK256 DUP8 MLOAD DUP2 SLOAD PUSH1 0x1 PUSH1 0x1 PUSH1 0xA0 SHL SUB NOT AND PUSH1 0x1 PUSH1 0x1 PUSH1 0xA0 SHL SUB SWAP1 SWAP2 AND OR DUP2 SSTORE SWAP3 MLOAD DUP4 DUP7 ADD SSTORE SWAP1 MLOAD PUSH1 0x2 DUP1 DUP5 ADD SWAP2 SWAP1 SWAP2 SSTORE SWAP1 MLOAD PUSH1 0x3 SWAP1 SWAP3 ADD SWAP2 SWAP1 SWAP2 SSTORE DUP1 SLOAD SWAP3 DUP4 ADD DUP2 SSTORE DUP4 MSTORE PUSH32 0x405787FA12A823E0F2B7631CC41B3BA8828B3321CA811111FA75CD3AA3BB5ACE SWAP1 SWAP2 ADD DUP2 SWAP1 SSTORE SWAP3 POP DUP1 JUMPDEST PUSH1 0x3 SLOAD DUP2 LT ISZERO PUSH2 0xBFB JUMPI CALLER PUSH1 0x1 PUSH1 0x1 PUSH1 0xA0 SHL SUB AND PUSH1 0x3 DUP3 DUP2 SLOAD DUP2 LT PUSH2 0xBC9 JUMPI PUSH2 0xBC9 PUSH2 0x1067 JUMP JUMPDEST PUSH1 0x0 SWAP2 DUP3 MSTORE PUSH1 0x20 SWAP1 SWAP2 KECCAK256 ADD SLOAD PUSH1 0x1 PUSH1 0x1 PUSH1 0xA0 SHL SUB AND EQ ISZERO PUSH2 0xBE9 JUMPI PUSH1 0x1 SWAP2 POP JUMPDEST DUP1 PUSH2 0xBF3 DUP2 PUSH2 0x1093 JUMP JUMPDEST SWAP2 POP POP PUSH2 0xBA2 JUMP JUMPDEST POP DUP1 PUSH2 0xC44 JUMPI PUSH1 0x3 DUP1 SLOAD PUSH1 0x1 DUP2 ADD DUP3 SSTORE PUSH1 0x0 SWAP2 SWAP1 SWAP2 MSTORE PUSH32 0xC2575A0E9E593C00F959F8C92F12DB2869C3395A3B0502D05E2516446F71F85B ADD DUP1 SLOAD PUSH1 0x1 PUSH1 0x1 PUSH1 0xA0 SHL SUB NOT AND CALLER OR SWAP1 SSTORE JUMPDEST POP POP POP POP JUMP JUMPDEST PUSH1 0x60 PUSH1 0x3 DUP1 SLOAD DUP1 PUSH1 0x20 MUL PUSH1 0x20 ADD PUSH1 0x40 MLOAD SWAP1 DUP2 ADD PUSH1 0x40 MSTORE DUP1 SWAP3 SWAP2 SWAP1 DUP2 DUP2 MSTORE PUSH1 0x20 ADD DUP3 DUP1 SLOAD DUP1 ISZERO PUSH2 0xCA2 JUMPI PUSH1 0x20 MUL DUP3 ADD SWAP2 SWAP1 PUSH1 0x0 MSTORE PUSH1 0x20 PUSH1 0x0 KECCAK256 SWAP1 JUMPDEST DUP2 SLOAD PUSH1 0x1 PUSH1 0x1 PUSH1 0xA0 SHL SUB AND DUP2 MSTORE PUSH1 0x1 SWAP1 SWAP2 ADD SWAP1 PUSH1 0x20 ADD DUP1 DUP4 GT PUSH2 0xC84 JUMPI JUMPDEST POP POP POP POP POP SWAP1 POP SWAP1 JUMP JUMPDEST PUSH1 0x60 PUSH1 0x2 DUP1 SLOAD DUP1 PUSH1 0x20 MUL PUSH1 0x20 ADD PUSH1 0x40 MLOAD SWAP1 DUP2 ADD PUSH1 0x40 MSTORE DUP1 SWAP3 SWAP2 SWAP1 DUP2 DUP2 MSTORE PUSH1 0x20 ADD DUP3 DUP1 SLOAD DUP1 ISZERO PUSH2 0xCA2 JUMPI PUSH1 0x20 MUL DUP3 ADD SWAP2 SWAP1 PUSH1 0x0 MSTORE PUSH1 0x20 PUSH1 0x0 KECCAK256 SWAP1 JUMPDEST DUP2 SLOAD DUP2 MSTORE PUSH1 0x20 ADD SWAP1 PUSH1 0x1 ADD SWAP1 DUP1 DUP4 GT PUSH2 0xCE6 JUMPI POP POP POP POP POP SWAP1 POP SWAP1 JUMP JUMPDEST PUSH2 0xD37 PUSH1 0x40 MLOAD DUP1 PUSH1 0x80 ADD PUSH1 0x40 MSTORE DUP1 PUSH1 0x0 PUSH1 0x1 PUSH1 0x1 PUSH1 0xA0 SHL SUB AND DUP2 MSTORE PUSH1 0x20 ADD PUSH1 0x0 DUP2 MSTORE PUSH1 0x20 ADD PUSH1 0x0 DUP2 MSTORE PUSH1 0x20 ADD PUSH1 0x0 DUP2 MSTORE POP SWAP1 JUMP JUMPDEST POP PUSH1 0x0 SWAP1 DUP2 MSTORE PUSH1 0x1 PUSH1 0x20 DUP2 DUP2 MSTORE PUSH1 0x40 SWAP3 DUP4 SWAP1 KECCAK256 DUP4 MLOAD PUSH1 0x80 DUP2 ADD DUP6 MSTORE DUP2 SLOAD PUSH1 0x1 PUSH1 0x1 PUSH1 0xA0 SHL SUB AND DUP2 MSTORE SWAP3 DUP2 ADD SLOAD SWAP2 DUP4 ADD SWAP2 SWAP1 SWAP2 MSTORE PUSH1 0x2 DUP2 ADD SLOAD SWAP3 DUP3 ADD SWAP3 SWAP1 SWAP3 MSTORE PUSH1 0x3 SWAP1 SWAP2 ADD SLOAD PUSH1 0x60 DUP3 ADD MSTORE SWAP1 JUMP JUMPDEST PUSH1 0x0 SLOAD PUSH1 0x1 PUSH1 0x1 PUSH1 0xA0 SHL SUB AND CALLER EQ PUSH2 0xDAE JUMPI PUSH1 0x40 MLOAD PUSH3 0x461BCD PUSH1 0xE5 SHL DUP2 MSTORE PUSH1 0x4 ADD PUSH2 0x56B SWAP1 PUSH2 0x10DB JUMP JUMPDEST PUSH1 0x1 PUSH1 0x1 PUSH1 0xA0 SHL SUB DUP2 AND PUSH2 0xE13 JUMPI PUSH1 0x40 MLOAD PUSH3 0x461BCD PUSH1 0xE5 SHL DUP2 MSTORE PUSH1 0x20 PUSH1 0x4 DUP3 ADD MSTORE PUSH1 0x26 PUSH1 0x24 DUP3 ADD MSTORE PUSH32 0x4F776E61626C653A206E6577206F776E657220697320746865207A65726F2061 PUSH1 0x44 DUP3 ADD MSTORE PUSH6 0x646472657373 PUSH1 0xD0 SHL PUSH1 0x64 DUP3 ADD MSTORE PUSH1 0x84 ADD PUSH2 0x56B JUMP JUMPDEST PUSH2 0xE1C DUP2 PUSH2 0xE1F JUMP JUMPDEST POP JUMP JUMPDEST PUSH1 0x0 DUP1 SLOAD PUSH1 0x1 PUSH1 0x1 PUSH1 0xA0 SHL SUB DUP4 DUP2 AND PUSH1 0x1 PUSH1 0x1 PUSH1 0xA0 SHL SUB NOT DUP4 AND DUP2 OR DUP5 SSTORE PUSH1 0x40 MLOAD SWAP2 SWAP1 SWAP3 AND SWAP3 DUP4 SWAP2 PUSH32 0x8BE0079C531659141344CD1FD0A4F28419497F9722A3DAAFE3B4186F6B6457E0 SWAP2 SWAP1 LOG3 POP POP JUMP JUMPDEST PUSH1 0x0 PUSH1 0x20 DUP3 DUP5 SUB SLT ISZERO PUSH2 0xE81 JUMPI PUSH1 0x0 DUP1 REVERT JUMPDEST POP CALLDATALOAD SWAP2 SWAP1 POP JUMP JUMPDEST PUSH1 0x20 DUP1 DUP3 MSTORE DUP3 MLOAD DUP3 DUP3 ADD DUP2 SWAP1 MSTORE PUSH1 0x0 SWAP2 SWAP1 PUSH1 0x40 SWAP1 DUP2 DUP6 ADD SWAP1 DUP7 DUP5 ADD DUP6 JUMPDEST DUP3 DUP2 LT ISZERO PUSH2 0xEFE JUMPI DUP2 MLOAD DUP1 MLOAD DUP6 MSTORE DUP7 DUP2 ADD MLOAD PUSH1 0x1 PUSH1 0x1 PUSH1 0xA0 SHL SUB AND DUP8 DUP7 ADD MSTORE DUP6 DUP2 ADD MLOAD DUP7 DUP7 ADD MSTORE PUSH1 0x60 DUP1 DUP3 ADD MLOAD ISZERO ISZERO SWAP1 DUP7 ADD MSTORE PUSH1 0x80 DUP1 DUP3 ADD MLOAD SWAP1 DUP7 ADD MSTORE PUSH1 0xA0 SWAP1 DUP2 ADD MLOAD SWAP1 DUP6 ADD MSTORE PUSH1 0xC0 SWAP1 SWAP4 ADD SWAP3 SWAP1 DUP6 ADD SWAP1 PUSH1 0x1 ADD PUSH2 0xEA5 JUMP JUMPDEST POP SWAP2 SWAP8 SWAP7 POP POP POP POP POP POP POP JUMP JUMPDEST PUSH1 0x1 PUSH1 0x1 PUSH1 0xA0 SHL SUB DUP2 AND DUP2 EQ PUSH2 0xE1C JUMPI PUSH1 0x0 DUP1 REVERT JUMPDEST PUSH1 0x0 PUSH1 0x20 DUP3 DUP5 SUB SLT ISZERO PUSH2 0xF32 JUMPI PUSH1 0x0 DUP1 REVERT JUMPDEST DUP2 CALLDATALOAD PUSH2 0xF3D DUP2 PUSH2 0xF0B JUMP JUMPDEST SWAP4 SWAP3 POP POP POP JUMP JUMPDEST PUSH1 0x20 DUP1 DUP3 MSTORE DUP3 MLOAD DUP3 DUP3 ADD DUP2 SWAP1 MSTORE PUSH1 0x0 SWAP2 SWAP1 DUP5 DUP3 ADD SWAP1 PUSH1 0x40 DUP6 ADD SWAP1 DUP5 JUMPDEST DUP2 DUP2 LT ISZERO PUSH2 0xFAD JUMPI PUSH2 0xF9A DUP4 DUP6 MLOAD DUP1 MLOAD PUSH1 0x1 PUSH1 0x1 PUSH1 0xA0 SHL SUB AND DUP3 MSTORE PUSH1 0x20 DUP1 DUP3 ADD MLOAD SWAP1 DUP4 ADD MSTORE PUSH1 0x40 DUP1 DUP3 ADD MLOAD SWAP1 DUP4 ADD MSTORE PUSH1 0x60 SWAP1 DUP2 ADD MLOAD SWAP2 ADD MSTORE JUMP JUMPDEST SWAP3 DUP5 ADD SWAP3 PUSH1 0x80 SWAP3 SWAP1 SWAP3 ADD SWAP2 PUSH1 0x1 ADD PUSH2 0xF60 JUMP JUMPDEST POP SWAP1 SWAP7 SWAP6 POP POP POP POP POP POP JUMP JUMPDEST PUSH1 0x0 DUP1 PUSH1 0x0 PUSH1 0x60 DUP5 DUP7 SUB SLT ISZERO PUSH2 0xFCE JUMPI PUSH1 0x0 DUP1 REVERT JUMPDEST DUP4 CALLDATALOAD PUSH2 0xFD9 DUP2 PUSH2 0xF0B JUMP JUMPDEST SWAP6 PUSH1 0x20 DUP6 ADD CALLDATALOAD SWAP6 POP PUSH1 0x40 SWAP1 SWAP5 ADD CALLDATALOAD SWAP4 SWAP3 POP POP POP JUMP JUMPDEST PUSH1 0x20 DUP1 DUP3 MSTORE DUP3 MLOAD DUP3 DUP3 ADD DUP2 SWAP1 MSTORE PUSH1 0x0 SWAP2 SWAP1 DUP5 DUP3 ADD SWAP1 PUSH1 0x40 DUP6 ADD SWAP1 DUP5 JUMPDEST DUP2 DUP2 LT ISZERO PUSH2 0xFAD JUMPI DUP4 MLOAD PUSH1 0x1 PUSH1 0x1 PUSH1 0xA0 SHL SUB AND DUP4 MSTORE SWAP3 DUP5 ADD SWAP3 SWAP2 DUP5 ADD SWAP2 PUSH1 0x1 ADD PUSH2 0x100A JUMP JUMPDEST PUSH1 0x20 DUP1 DUP3 MSTORE DUP3 MLOAD DUP3 DUP3 ADD DUP2 SWAP1 MSTORE PUSH1 0x0 SWAP2 SWAP1 DUP5 DUP3 ADD SWAP1 PUSH1 0x40 DUP6 ADD SWAP1 DUP5 JUMPDEST DUP2 DUP2 LT ISZERO PUSH2 0xFAD JUMPI DUP4 MLOAD DUP4 MSTORE SWAP3 DUP5 ADD SWAP3 SWAP2 DUP5 ADD SWAP2 PUSH1 0x1 ADD PUSH2 0x104B JUMP JUMPDEST PUSH4 0x4E487B71 PUSH1 0xE0 SHL PUSH1 0x0 MSTORE PUSH1 0x32 PUSH1 0x4 MSTORE PUSH1 0x24 PUSH1 0x0 REVERT JUMPDEST PUSH4 0x4E487B71 PUSH1 0xE0 SHL PUSH1 0x0 MSTORE PUSH1 0x11 PUSH1 0x4 MSTORE PUSH1 0x24 PUSH1 0x0 REVERT JUMPDEST PUSH1 0x0 PUSH1 0x0 NOT DUP3 EQ ISZERO PUSH2 0x10A7 JUMPI PUSH2 0x10A7 PUSH2 0x107D JUMP JUMPDEST POP PUSH1 0x1 ADD SWAP1 JUMP JUMPDEST PUSH1 0x0 DUP3 DUP3 LT ISZERO PUSH2 0x10C0 JUMPI PUSH2 0x10C0 PUSH2 0x107D JUMP JUMPDEST POP SUB SWAP1 JUMP JUMPDEST PUSH4 0x4E487B71 PUSH1 0xE0 SHL PUSH1 0x0 MSTORE PUSH1 0x31 PUSH1 0x4 MSTORE PUSH1 0x24 PUSH1 0x0 REVERT JUMPDEST PUSH1 0x20 DUP1 DUP3 MSTORE DUP2 DUP2 ADD MSTORE PUSH32 0x4F776E61626C653A2063616C6C6572206973206E6F7420746865206F776E6572 PUSH1 0x40 DUP3 ADD MSTORE PUSH1 0x60 ADD SWAP1 JUMP JUMPDEST PUSH4 0x4E487B71 PUSH1 0xE0 SHL PUSH1 0x0 MSTORE PUSH1 0x41 PUSH1 0x4 MSTORE PUSH1 0x24 PUSH1 0x0 REVERT INVALID LOG2 PUSH5 0x6970667358 0x22 SLT KECCAK256 CODECOPY 0xEF 0xDE 0xB1 PUSH26 0x5A19364556F8C7CB7FF778AA459E3A4E50A4D01ED5BDC6A887C6 SMOD PUSH5 0x736F6C6343 STOP ADDMOD SIGNEXTEND STOP CALLER ",
  "sha1": "94d9286d3aefc972760ff5ecd3ccfc8f43e05557",
  "source": "// SPDX-License-Identifier: MIT\n\npragma solidity ^0.8.10;\n\nimport \"./CBorrow.sol\";\nimport \"./CDeposit.sol\";\n\n\nimport \"@openzeppelin/contracts/access/Ownable.sol\";\n\n\n\n\ncontract CLendingManager is Ownable, CDeposit, CBorrow {\n\n    function getOwner() external view returns (address)  {\n        return owner();\n    }\n\n\n    \n}",
  "sourcePath": "contracts/CLendingManager.sol",
  "type": "contract"
}